:020000040800F2
:10000000500700204D020008311C00088519000827
:100010002D1C0008F90300084D1F00080000000017
:10002000000000000000000000000000391C000873
:10003000FD03000800000000351C00083D1C0008FE
:1000400067020008670200086702000867020008EC
:1000500067020008670200086702000867020008DC
:100060000104000867020008670200086702000830
:1000700067020008670200086702000867020008BC
:1000800067020008670200086702000867020008AC
:10009000670200086702000867020008670200089C
:1000A000670200080D1D00086702000867020008CB
:1000B000670200086702000867020008670200087C
:1000C000670200086702000867020008670200086C
:1000D000670200086702000867020008670200085C
:1000E000670200086702000867020008670200084C
:1000F000670200086702000867020008670200083C
:10010000670200086702000867020008670200082B
:10011000670200086702000867020008670200081B
:10012000670200086702000867020008670200080B
:1001300067020008670200086702000867020008FB
:1001400067020008670200086702000867020008EB
:1001500067020008670200086702000867020008DB
:1001600067020008670200086702000867020008CB
:10017000670200086702000867020008000000002C
:1001800067020008670200086702000867020008AB
:10019000670200086702000867020008670200089B
:1001A00000000000000000006702000800F002F8F4
:1001B00000F03CF80AA090E8000C82448344AAF1C5
:1001C0000107DA4501D100F031F8AFF2090EBAE8C3
:1001D0000F0013F0010F18BFFB1A43F0010318477B
:1001E000241E0000441E0000103A24BF78C878C1C5
:1001F000FAD8520724BF30C830C144BF04680C602D
:10020000704700000023002400250026103A28BF74
:1002100078C1FBD8520728BF30C148BF0B60704778
:100220001FB501F0D5FE1FBD10B510BD00F0A9F837
:100230001146FFF7F5FF01F08BFE00F0C7F803B49D
:10024000FFF7F2FF03BC00F0CFF800000948804739
:1002500009480047FEE7FEE7FEE7FEE7FEE7FEE7A8
:10026000FEE7FEE7FEE7FEE704480549054A064BC0
:1002700070470000F91C0008AD0100085001002083
:1002800050070020500300205003002053EA020CC6
:1002900000F069802DE9F04B4FF00006002B1FBFE6
:1002A000B3FA83F503FA05F424FA05F65E4012BFAB
:1002B0001643B2FA82F502FA05F4C5F120051EBF15
:1002C00022FA05FC44EA0C04203556EA044C4FEAB5
:1002D000144418BF641C4FF000084FF0000990420E
:1002E00071EB030C39D3002919BFB1FA81F701FA78
:1002F00007F6B0FA80F700FA07F6C7F120071EBF2D
:1003000020FA07FC46EA0C062037B6FBF4FCA7EB04
:100310000507103F07F01F0BCBF120062CFA06F65D
:100320000CFA0BFB44BFB3460026202FA4BF5E4649
:100330004FF0000B5BEA060C08BF4FF0010B19EB06
:100340000B0948EB0608ABFB027C06FB02CC0BFB5F
:1003500003CCC01B71EB0C01C1E70B4602464146C2
:100360004846BDE8F08B13B5084318BF4FF0FF3087
:100370000146AFF30080BDE81C40704770477047EE
:100380007047754600F02CF8AE46050069465346A6
:1003900020F00700854618B020B5FFF765FFBDE8DF
:1003A00020404FF000064FF000074FF000084FF0DC
:1003B000000BAC46ACE8C009ACE8C009ACE8C00929
:1003C000ACE8C00921F007018D46704710B504461E
:1003D000AFF300802046BDE81040FFF730BF0000BB
:1003E000004870471000002001491820ABBEFEE70E
:1003F0002600020070470000FEE700007047000082
:10040000042000F02BB8000072B600BFFEE7000029
:10041000B0B5044600F008F9054640F20000C2F20B
:1004200000000078611C18BF044400BF00F0FCF815
:10043000401BA042FAD3B0BD042818BF704740F259
:100440007400C2F200000068C16A826B013164323C
:10045000B2FBF1F303FB11218163704743F61441B2
:10046000C4F201010A68024214BF08607047FFF736
:10047000E3BF00002DE9F04F82B000F13E4242F2AE
:10048000004502F1FF77C4F202050A2243F6004E4E
:100490004FEAB726A84208BF0922C4F2010E092E6E
:1004A00038BF4FEAB7220125002600274FF0000889
:1004B000009208E008F101080437B8F1100F06F1C6
:1004C000020600F0A7800C6805FA08F914EA090F83
:1004D000F0D0D1F804B003220BF0030CACF101040E
:1004E000B240012C6FEA020A10D88268CC6802EA96
:1004F0000A02B440224382604268CBF3001422EA2D
:10050000090204FA08F42243426005E0BCF1030F3B
:1005100002D14FF0030C20E0C2688C6802EA0A02A4
:10052000B4402243BCF1020FC26016D16FF0030247
:1005300002EA58020244D2F820C007F01C050F233B
:100540000C69AB402CEA030304FA05F52B43136254
:10055000D1F804B001250BF0030C02680CFA06F385
:1005600002EA0A021A431BF4403F0260A2D00022B2
:1005700043F644030192C4F202031A684FF6084C92
:1005800042F480421A601A68CFF6FF7C02F480427F
:100590000192019A28F00302724452F80C3007F0DD
:1005A0000C050F24AC40A343009C04FA05F52B4333
:1005B00042F80C30DEF808204B6842EA090543F6A1
:1005C0000C4CDC0258BF22EA0905CEF80850C4F2F0
:1005D000010CDCF800209C0242EA090558BF22EA1F
:1005E0000905CCF80050DEF804209C0342EA090516
:1005F00058BF22EA0905CEF80450DEF80020DB03DC
:1006000042EA090558BF22EA0905CEF80050012543
:1006100050E700BF02B0BDE8F08F0000002A08BF1D
:10062000090481617047000040F24C10C2F20000E2
:100630000068704740F2000040F24C11C2F2000026
:10064000C2F2000100780A68104408607047000098
:1006500080B543F60040C4F20200016841F4007125
:100660000160016841F480610160016841F48071BA
:100670000160032000F088F80F2000F005F800F07A
:1006800027F8002080BD000070B540F20006C2F2DD
:10069000000640F208013278C2F200014FF47A738A
:1006A0000968B3FBF2F20446B1FBF2F1084600F030
:1006B00081FB0F2C4FF0010508D838B94FF0FF30FF
:1006C00021460022002500F033F87460284670BDF2
:1006D00082B0002043F640010190C4F202014A6852
:1006E00042F480424A604A6802F480420192019AD0
:1006F0000090086840F080500860086800F0805062
:100700000090009802B07047002848BF7047C1B2FF
:1007100000F01F00012202FA00F04EF20012CEF2A9
:10072000000242EAD10121F0030108607047000095
:1007300010B54EF60C5CCEF2000CDCF80030C3F3C2
:10074000022E8EF00704042C28BF0424BEF10303FC
:100750004FF0FF3E0EFA04F438BF0023A143994046
:100760000EFA03F39A43114300F00F0200F16043C5
:100770000901043A03F564436244002848BF02F1CA
:100780000C03197010BD00004EF60C51CEF20001A2
:100790000A684FF6FF031A4060F30A2242F08060B5
:1007A00040F0FD700860704770B582B00020019085
:1007B00043F64000C4F202000168402641F0805137
:1007C00001600068C4F20E2600F08050019001988C
:1007D00047F204050120C4F200053060FFF724FF52
:1007E000044600BF2868C00306D4FFF71DFF001BA6
:1007F000B0F57A7FF6D90EE001207060FFF714FFA4
:10080000044600BF2868800308D4FFF70DFF001BD3
:10081000B0F57A7FF6D9032002B070BD002002B097
:1008200070BD00002DE9F041002800F08B8043F6F8
:100830000808C4F202080446D8F8F8030D4600F090
:100840000F00884207D288F8F853D8F8F80300F070
:100850000F00A84276D12068810717D5410705D53A
:10086000D8F8001041F4E051C8F80010010705D590
:10087000D8F8001041F46041C8F80010D8F8001012
:10088000A26821F0F0011143C8F80010C0073FD161
:10089000D8F8F80300F00F00A84207D988F8F853F9
:1008A000D8F8F80300F00F00A8424BD120684107A8
:1008B00007D5D8F80010E26821F4E0511143C8F8D8
:1008C0000010000708D5D8F80000216920F4604026
:1008D00040EAC100C8F8000000F07CF8D8F8001029
:1008E00041F6EA72C1F30311C0F60002515C40F216
:1008F000080220FA01F140F20400C2F20000006890
:10090000C2F200021160FFF7BFFE0020BDE8F081D7
:100910006068811E022907D258F8081C89015CBF53
:100920000120BDE8F08111E0012807D158F8081C2A
:1009300089035CBF0120BDE8F08107E058F8081C7E
:10094000890703D40120BDE8F08100BFD8F800106A
:1009500021F003010843C8F80000FFF765FE0646D2
:1009600041F28837D8F80000616800F00C00B0EB65
:10097000810F8DD0FFF758FE801BB842F2D90320BB
:10098000BDE8F08140F2080043F60801C2F2000021
:10099000C4F202010068096841F6FA72C1F38221CB
:1009A000C0F60002515CC8407047000040F20800E9
:1009B00043F60801C2F20000C4F2020100680968AF
:1009C00041F6FA72C1F34231C0F60002515CC840F0
:1009D0007047000010B543F60404C4F202046068D6
:1009E00000F00C0008280BD0042819BF42F2004088
:1009F000C0F2F40041F60030C0F2B70010BD00BFF5
:100A0000206821682368490241F60031C0F2B7012D
:100A100000F03F02C3F388105CBF42F20041C0F215
:100A2000F401A1FB00010023FFF730FC2168022242
:100A3000C1F3014102EB4101B0FBF1F010BD000038
:100A40002DE9F04182B0002868D00446007843F6D2
:100A50000006C007C4F202060BD0B06800F00C001C
:100A6000042840F09F803068800302D56068002829
:100A700054D0207880071AD5B06810F00C0F09D038
:100A8000B06800F00C00082840F0A68070684002B2
:100A900000F1A2803068800702D5E06801283DD1CE
:100AA0003068216920F0F80040EAC1003060207809
:100AB000000737D4207840074CD4A56955B3B068F7
:100AC00000F00C00082840F0BB80012D26D0706893
:100AD000E16900F480028A4220D1216A00F03F02DD
:100AE0008A421BD147F6C071626A0140B1EB821F96
:100AF00014D1A16A4FF6FF73C903994300F4403241
:100B0000A1F580318A4209D1E16A00F07060B0EB52
:100B1000016F03D1002002B0BDE8F081012002B0D6
:100B2000BDE8F0816069002840F20000C4F247206F
:100B300076D00121C0F8801EFFF776FD054600BF84
:100B4000706F8007B6D4FFF76FFD401B0228F7D9FE
:100B5000DDE000BF306C10F080580AD10020019019
:100B6000306C40F080503064306C00F08050019068
:100B7000019847F20007C4F200073868C00541D465
:100B8000386840F480703860FFF74EFD054600BFBE
:100B90003868C00536D4FFF747FD401B0228F7D957
:100BA000B5E000BFB06800F00C00082803D1706801
:100BB00040023FF558AF6068B0F5803F07D0B0F510
:100BC000A02F40F08D80306840F480203060306885
:100BD00040F4803030608DE0E068002852D0002082
:100BE000C4F2472001210160FFF71EFD054600BF4A
:100BF000306880073FF554AFFFF716FD401B022811
:100C0000F6D984E0A068012805D005284ED1306FC0
:100C100040F004003067306F40F0010030674FE073
:100C20000021C0F8801EFFF7FFFC0546706F8007AB
:100C30007FF540AFFFF7F8FC401B0228F6D966E0CD
:100C40000027C4F2472700203866FFF7EDFC022D8D
:100C500005460BD1306880015ED5FFF7E5FC401BEF
:100C600002284FF00300F5D955E700BF3068800136
:100C70007FF550AFFFF7D8FC401B02284FF0030070
:100C8000F4D948E70020C4F2472000210160FFF7B3
:100C9000CBFC0546306880077FF509AFFFF7C4FC41
:100CA000401B02284FF00300F4D934E7316F0028CD
:100CB00021F001013167316F21F0040131674DD01E
:100CC000FFF7B2FC054641F2883700BF306F80075E
:100CD00056D4FFF7A9FC401BB842F7D917E000BF74
:100CE0003168002821F480313160316821F480219D
:100CF00031604FD0FFF798FC054600BF3068800395
:100D00003FF5B7AEFFF790FC401B6428F6D90320EF
:100D100002B0BDE8F08100BF04F11C052FCD0843EF
:100D200040EA8210D9034FF6FF729143A1F580315A
:100D300040EA05600843706001203866FFF774FCE4
:100D4000044600BF306880013FF5E4AEFFF76CFC5D
:100D5000001B02284FF00300F4D9DCE6FFF764FC27
:100D6000054641F2883700BF306F800708D5FFF78E
:100D70005BFC401BB8424FF00300F5D9CBE600BF47
:100D8000B8F1000F7FF499AE306C20F080503064E1
:100D900093E600BFFFF748FC054600BF30688003BC
:100DA0007FF567AEFFF740FC401B64284FF003005F
:100DB000F4D9B0E6411E0020B0EB116F1CBF01203A
:100DC00070474EF21002CEF2000251604EF62351EF
:100DD000CEF20001F0230B70072190601160704784
:100DE0007047000070470000B0B590F83C20012A21
:100DF00004BF0220B0BD01F108053CCDD1E900CE11
:100E000023F47C5322F470521A432EF4F0431A4315
:100E10002CF4E0431A4324F4C0431A432A43C9691B
:100E200022F48042036811435964002180F83C1089
:100E30000846B0BD10B590F83C20012A4FF00202E0
:100E400051D080F83D200268D2F804E0D2F808C002
:100E50000C682EF07003234341F2FF74C4F20004C7
:100E6000A24253600EDC40F2FF73C4F200039A42C8
:100E700016DCB2F1804F2BD040F20043C4F20003E5
:100E800024E000BF40F2FF33C4F201039A4213DCB6
:100E900041F60003C4F200039A4219D0002313E084
:100EA00040F60003C4F200039A4211D040F600431A
:100EB000C4F200030AE000BF44F20003C4F20103DD
:100EC0009A4205D040F20043C4F201039A4204D191
:100ED00049682CF08003194391600121002280F8B9
:100EE0003D1080F83C20104610BD0000002804BFD3
:100EF0000120704710B5044690F83D0028B9002045
:100F000084F83C00204600F01FF8022084F83D00E1
:100F10002068211D00F000FF012084F8460084F8BD
:100F20003E0084F83F0084F8400084F8410084F8D3
:100F3000420084F8430084F8440084F8450084F8B3
:100F40003D00002010BD000080B582B00068002187
:100F5000C4F2010188421CBF02B080BD0020019094
:100F600043F64400C4F202000168002241F001018E
:100F700001600068002100F0010001900198192033
:100F8000FFF7D6FB192002B0BDE88040FFF7BCBBDD
:100F900090F83D1001291CBF01207047022180F804
:100FA0003D10006841F2FF72C168C4F20002904235
:100FB00041F00101C1600DDC40F2FF71C4F200019B
:100FC000884215DCB0F1804F2AD040F20041C4F2D3
:100FD000000123E040F2FF31C4F20101884213DC3A
:100FE00041F60001C4F20001884219D0002113E04B
:100FF00040F60001C4F20001884211D040F60041E1
:10100000C4F200010AE000BF44F20001C4F2010191
:10101000884205D040F20041C4F20101884206D165
:10102000816801F00701062904BF002070470168AC
:1010300041F00101016000207047000080B590F888
:101040003C20012A4FF0020200F0C28080F83D20CF
:10105000D0F800C04FF67772DCF8083023EA0202BD
:10106000CCF808200B684F2B28DC1F2B44DD202BED
:1010700045D0302B43D0402B40F0AC80D1F804E079
:10108000C968DCF82030DCF8202022F00102CCF81E
:101090002020DCF8182022F0F00242EA011123F0AF
:1010A0000A0242EA0E02CCF81810CCF82020DCF834
:1010B000081041F0470121F0300180E06F2B27DD5F
:1010C000B3F5005F48D0B3F5805F7AD0702B40F065
:1010D0008180D1E901E3C968DCF8082043EA0E0306
:1010E00022F47F4243EA01211143CCF80810DCF8D6
:1010F000081041F0770162E00BB1102B6AD1DCF8E7
:10110000081021F07001194341F0070157E000BFBA
:10111000502B35D0602B5DD1D1F804E0C968DCF8E4
:101120002030DCF8202022F01002CCF82020DCF85F
:10113000182022F4704242EA013123F0A00242EA70
:101140000E12CCF81810CCF82020DCF8081041F072
:10115000670121F0100132E0D1E901E3C968DCF850
:10116000082043EA0E0322F47F4243EA012111439F
:10117000CCF80810DCF8081041F480411FE000BFF3
:10118000D1F804E0C968DCF82030DCF8202022F037
:101190000102CCF82020DCF8182022F0F00242EA0C
:1011A000011123F00A0242EA0E02CCF81810CCF822
:1011B0002020DCF8081041F0570121F02001CCF884
:1011C00008100022012180F83D10002180F83C1019
:1011D000104680BD0122F5E77047000070B5044657
:1011E0000068C5680669B10716D515F0020113D06D
:1011F0006FF002010161012121778069800703D02E
:101200002046FFF7E9FF05E0204600F08FF8204672
:1012100000F0D0F900202077700719D515F00400F0
:1012200016D020686FF004010161022121778069E6
:1012300010F4407F04D02046FFF7CEFF06E000BF49
:10124000204600F073F8204600F0B4F90020207723
:10125000300717D515F0080014D020686FF008018A
:10126000016104212177C069800703D02046FFF780
:10127000B3FF05E0204600F059F8204600F09AF947
:1012800000202077F00619D515F0100016D0206840
:101290006FF01001016108212177C06910F4407FCF
:1012A00004D02046FFF798FF06E000BF204600F07C
:1012B0003DF8204600F07EF900202077F00718BFA7
:1012C00015F0010002D1300609D412E020686FF059
:1012D00001010161204600F0F9F9300609D515F049
:1012E000800006D020686FF0800101612046FFF782
:1012F00077FD700609D515F0400006D020686FF024
:1013000040010161204600F0F1F9B00658BF70BD00
:1013100015F0200008D021686FF0200220460A61F5
:10132000BDE87040FFF75EBD70BD00007047000073
:101330002DE9F04390F83C30012B04BF0220BDE8BA
:10134000F0834FEAB202032A00F2FC80DFE802F0E9
:10135000023E7EBE036840F200471C6A1A6A24F00F
:10136000020422F001021A621A46D3F804E052F88D
:1013700018CF8E6843F48065C4F20107BD4244EA89
:10138000060405D1CE6824F00C0426F0040634438C
:101390000E68BD4207D1D1E905572EF4407E45EADB
:1013A0000E0545EA070E2CF073073743C3F804E037
:1013B0009F614F6809695F631C629F6947F0080776
:1013C0009F619F6927F004079F61B1E0036840F2C5
:1013D00000481C6A1A6A24F0200422F010021A62E3
:1013E0001A46D3F804C052F818EF8F6843F48065AA
:1013F000C4F20108454544EA071407D1CF686FF0ED
:10140000400624F0C00406EA07163443D1F80090E1
:10141000454506D1D1E905562CF440672E4347EAED
:10142000860C2EF4E64747EA0927C3F804C09F61FB
:101430004F6809699F631C629F6947F400679F6159
:101440009F6927F480679F6171E000BF036840F2E5
:1014500000481C6A1A6A24F4007422F480721A622A
:101460001A46D3F804C052F81CEF8F6843F4806525
:10147000C4F20108454544EA072408D1CF6840F288
:10148000FF463F0224F4406427EA06063443D1F8BD
:101490000090454506D1D1E905562CF440572E431E
:1014A00047EA061C2EF0730747EA0907C3F804C091
:1014B000DF614F680969DF631C62DF6947F0080775
:1014C000DF61DF6927F00407DF6131E0036840F284
:1014D0000045D3F820C01A6A43F4806722F4805292
:1014E0001A621A465C6852F81CEFD1F800808E68C8
:1014F000C4F20105AF4204D14D6924F4804444EAAA
:1015000085142CF4005747EA06372EF4E64646EADF
:1015100008265C60DE614E6809691E641F62DF692F
:1015200047F40067DF61DF6927F48067DF61090244
:101530001368194311600021002280F83C200846FE
:10154000BDE8F0830121002280F83C200846BDE878
:10155000F0830000002804BF0120704710B5044646
:1015600090F83D0028B9002084F83C00204600F0A7
:101570001FF8022084F83D002068211D00F0CCFBFC
:10158000012084F8460084F83E0084F83F0084F887
:10159000400084F8410084F8420084F8430084F855
:1015A000440084F8450084F83D00002010BD000090
:1015B000704700007047000041B1082910D004298D
:1015C00014BF00F1410200F13F020BE090F83E2011
:1015D000012A1CBF01207047022280F83E2013E040
:1015E00000F140021278012A1CBF0120704702223C
:1015F000082907D0042914BF80F8412080F83F2033
:1016000002E000BF80F84020006801F01F010122C5
:10161000036A02FA01F123EA01020262026A11433B
:1016200041F2FF72C4F20002904201620CDC40F20F
:10163000FF71C4F20001884214DCB0F1804F37D052
:1016400040F2004116E000BF40F2FF31C4F2010158
:10165000884215DC41F60001C4F20001884227D01F
:10166000002115E040F60001C4F2000188421FD0BD
:1016700040F60041C4F20001884219D01FE000BFCB
:1016800044F20001C4F20101884211D040F200414D
:10169000C4F20101884212D1416C40F2004340F48F
:1016A0008062C4F2010341F400419A42416406D1D0
:1016B000816801F00701062904BF00207047016816
:1016C00041F00101016000207047000040F2740108
:1016D000C2F20001884218BF704740F27000C2F2A7
:1016E0000000016801310160704700007047000090
:1016F000002804BF0120704710B5044690F841004F
:1017000028B9002084F84000204600F021F8242069
:1017100084F841002068C16821F40051C16020466E
:1017200000F09CFB2068016921F49041016141694E
:1017300021F02A014161C16841F40051C1600020DB
:101740002021606484F8411084F84210606310BD69
:1017500080B586B0006847F60042C4F2000200215E
:101760009042CDE90411CDE90211019122D047F652
:101770000001C4F20001884245D1002043F6300147
:101780000090C4F202010A6942F080420A610A69CB
:1017900002F080420092009A0090086840F0100029
:1017A0000860086800F01000009000984FF4C070C6
:1017B00019E000BF43F630000091C4F20200026954
:1017C00042F000420261026902F000420092009A77
:1017D0000091016841F010010160006800F0100004
:1017E00000900098032001900220029000200390B6
:1017F000032004900820059041F20000C4F202008A
:1018000001A9FEF737FE06B080BD00002DE9F041CA
:10181000044690F8410020281CBF0220BDE8F0815A
:101820000D4600294FF0010000F0AA801646002A5C
:1018300008BFBDE8F081002060642120984684F84C
:101840004100FEF7F1FEA684E684A1680646B1F5E4
:10185000805F02D12069002862D02F460025E08CED
:10186000002861D018F1010018D0B8F1000F37D16D
:10187000216808E017F8010B4860E08C0138E0842B
:10188000E08C002851D00868000673D5002FF1D1F4
:1018900035F8020B00276FF35F20EDE7216802E0C7
:1018A0000868000609D40868000606D4086800061F
:1018B0005CBF08685FEA0060F2D51FB117F8010B42
:1018C00005E000BF35F8020B00276FF35F2048608A
:1018D000E08C0138E084E08C0028E4D125E000BFF2
:1018E000216800BF0868000608D4FEF79DFE801B33
:1018F000404541D82168C868F4E700BF17B117F820
:10190000010B04E035F8020B00276FF35F204860FD
:10191000E08C0138E084E08C0028E3D105E000BFD2
:101920000027E08C00289DD12168086840061FD45C
:10193000B8F1000F1ED018F101000FD10868400661
:1019400016D40868400613D40868400610D4086806
:1019500040064FF00000F1D50FE000BFFEF764FE37
:10196000801B404508D82068C16800684006F5D54E
:10197000002002E0FEF758FE0320202184F84110E9
:10198000BDE8F081FEE70000F0B587B0002643F621
:101990003000CDE905660196C4F20200016841F20B
:1019A000004441F0100101600168C4F2020401F03A
:1019B00010010191019901960168002241F0010195
:1019C000016001684FF4804701F001010191019924
:1019D0000196016841F080010160016801F0800119
:1019E000019101990196016841F0020101600168CD
:1019F00001F00201019101990196016841F0200175
:101A0000016000684FF4804100F0200001900198CF
:101A10002046FEF703FE042002904FF48810039046
:101A2000022002AD0490A4F580502946FEF722FD65
:101A30000120CDE903062046294602970596FEF7C8
:101A400019FD082002210022FEF772FE0820FEF791
:101A50005BFE07B0F0BD0000B0B59CB0002540F2C1
:101A60007400C4F201050021C2F20000B32240F26A
:101A7000E7331691CDE914111191CDE90F11CDE99C
:101A80000D11CDE90B11CDE90911CDE90711CDE912
:101A90000511CDE90311CDE90111C0E90052C0E9FA
:101AA0000213C0E904118161FFF720FA002818BF72
:101AB000FEF7AAFC4FF48050139040F27400C2F27B
:101AC000000013A9FFF7BAFA002818BFFEF79CFC24
:101AD00040F27400C2F20000FFF73CFD002818BF7E
:101AE000FEF792FC40F274000024C2F2000010A93C
:101AF000CDE91044FFF79EF9002818BFFEF784FCDB
:101B00007020099040F2F310CDE90A0440F274000D
:101B1000C2F2000009A90422CDE90C44CDE90E442B
:101B2000FFF706FC002818BFFEF76EFC40F27404B5
:101B300000204FF40051C2F200040590CDE90300EB
:101B4000CDE901000691089001A92046FFF74CF964
:101B5000002818BFFEF758FC2068A84202D01CB02D
:101B6000B0BD00BF002043F630011790C4F202015F
:101B70000A6842F010020A60096801F0100117912A
:101B800017994FF4006117910221CDE918101A90AE
:101B900001201B9005F5883017A9FEF76BFC1CB0DF
:101BA000B0BD000010B540F2BC0047F6000CC2F218
:101BB0000000C4F2000C4FF4E1324FF480530021D6
:101BC0004FF4806E0C24C0E900C2C0E90231C0E9C4
:101BD00004E4C0E90611FFF78BFD002808BF10BD23
:101BE000BDE81040FEF710BC10B540F2041047F6F7
:101BF000004CC2F20000C4F2000C4FF4E1324FF48A
:101C0000805300214FF4806E0C24C0E900C2C0E96B
:101C10000231C0E904E4C0E90611FFF769FD0028BC
:101C200008BF10BDBDE81040FEF7EEBBFEE70000A8
:101C3000FEE700007047000070470000FEF7FABCA6
:101C400080B592B0002043F64001CDE90A00CDE90D
:101C500008000590CDE90300CDE901000090C4F231
:101C600002010A6842F080520A60096801F080515E
:101C700000910099009047F20000C4F20000016852
:101C800041F44041016000684FF4800100F440409D
:101C900000900098012006904FF480300D910621AD
:101CA000079002200E91B4210C90CDE90F10042072
:101CB000119006A8FEF7C4FE10B172B6FEE700BF91
:101CC000FEF772FD10B172B6FEE700BF0F20019063
:101CD00002200290002003904FF4A05004904FF493
:101CE0008050059001A80521FEF79CFD10B172B649
:101CF000FEE700BF12B080BD4EF68850CEF2000065
:101D0000016841F4700101607047000040F2740006
:101D1000C2F20000FFF762BAB0B540F6FF3E0568B8
:101D2000C4F2000E40F2004C7045C4F2010C27DCF6
:101D3000B0F1804F31D040F20043C4F2000398422A
:101D40002BD040F60003C4F20003984225D041F6A0
:101D5000FF73C4F2000398422ADC70453CDCB0F10A
:101D6000804F5FD040F20043C4F20003984259D044
:101D700040F60003C4F20003984253D057E000BF7E
:101D800040F60043C4F20003984206D0604504D0F8
:101D90000023C4F201039842D9D14B6825F07002A8
:101DA00043EA020541F6FF73C4F200039842D4DD12
:101DB00043F6FF73C4F20103984221DC42F20003B0
:101DC000C4F2000398422DD00023C4F201039842CC
:101DD00028D0604526D02AE040F60043C4F2000334
:101DE00098421FD041F60003C4F20003984219D074
:101DF00041F60043C4F20003984213D017E000BF3D
:101E000044F20003C4F2010398420BD044F60003ED
:101E1000C4F20103984205D044F20043C4F2010326
:101E2000984204D1CB6825F4407243EA02050A685F
:101E30008C684B69C46240F480648262644504BF6C
:101E400009690163026825F0800142F00402194328
:101E50000260012242610160B0BD000010B504467D
:101E60000068D4E902C22369016921F44051114399
:101E70000161626943EA0C01E3691143C2681943D5
:101E800049F20C639A431143C1604169A26921F48C
:101E9000407141F20043114340F48062C4F20103F7
:101EA0009A42416102D1FEF781FD01E0FEF76AFD31
:101EB000E16963681922B1F5004FA0FB020123D14B
:101EC0005A00DB0FFEF7E2F948F21F51C5F2EB11A1
:101ED000A0FB01235A094FF69C73C0F6FF7303F170
:101EE000805302FB0300322303EBC000A0FB01017F
:101EF0004FF4F87000EA111000EB0210C1F3421128
:101F000008442168886010BD9A009B0FFEF7BEF957
:101F100048F21F51C5F2EB11A0FB01235A094FF6FD
:101F20009C73C0F6FF7302FB0300322303EB001027
:101F3000A0FB0101F02000EA511000EB0210C1F3F8
:101F4000431108442168886010BD0000FEE70000CE
:101F500084B0FEF77DFBFFF773FEFFF715FDFFF77B
:101F60007BFDFFF71FFEFFF73FFE40F27404C2F255
:101F700000042046FFF70CF820460421FFF71CFB65
:101F800041F20040C4F202004FF480410122FEF70A
:101F900045FB47F26520039046F24D10C7F27340AF
:101FA000029046F6527040F20414C6F66270C2F215
:101FB000000401AD019000BF204629460A224FF4DB
:101FC0007A73FFF723FC4FF47A70FEF721FAF3E7F8
:101FD000F1EE100A4FF6FF71C0F2C03120EA0100A5
:101FE00040F04070E1EE100A704700000000000071
:101FF00000000102030406070809000000000102B6
:102000000304000028200008000000201000000049
:10201000E8010008382000081000002040070000F8
:102020000402000800000000010000001000000091
:082030000024F4000000000090
:04000005080001AD41
:00000001FF
