:020000040800F2
:10000000B8080020510200083D1A000855190008E0
:10001000391A00088D040008691C0008000000005F
:10002000000000000000000000000000451A000869
:10003000C104000800000000411A0008491A000825
:100040006B0200086B0200086B0200086B020008DC
:100050006B0200086B0200086B0200086B020008CC
:100060006B0200086B0200086B0200086B020008BC
:100070006B0200086B0200086B0200086B020008AC
:100080006B0200086B0200086B020008B504000850
:10009000910400089D040008A90400086B020008F0
:1000A0006B0200086B0200086B0200086B0200087C
:1000B0006B0200086B0200086B0200086B0200086C
:1000C0006B0200086B0200086B0200086B0200085C
:1000D0006B0200086B0200086B0200086B0200084C
:1000E0006B0200086B0200086B0200086B0200083C
:1000F0006B0200086B0200086B0200086B0200082C
:100100006B0200086B0200086B0200086B0200081B
:100110006B0200086B020008191B00086B02000844
:100120006B0200086B0200086B0200086B020008FB
:100130006B0200086B0200086B0200086B020008EB
:100140006B0200086B0200086B0200086B020008DB
:100150006B0200086B0200086B0200086B020008CB
:100160006B0200086B0200086B0200086B020008BB
:100170006B0200086B0200086B0200080000000020
:100180006B0200086B0200086B0200086B0200089B
:100190006B0200086B0200086B0200086B0200088B
:1001A00000000000000000006B02000800F002F8F0
:1001B00000F03EF80AA090E8000C82448344AAF1C3
:1001C0000107DA4501D100F033F8AFF2090EBAE8C1
:1001D0000F0013F0010F18BFFB1A43F0010318477B
:1001E0001432000034320000103A24BF78C878C1BD
:1001F000FAD8520724BF30C830C144BF04680C602D
:10020000704700000023002400250026103A28BF74
:1002100078C1FBD8520728BF30C148BF0B60704778
:100220001FB503F011F800F0D5F81FBD10B510BDD3
:1002300000F0F6F81146FFF7F3FF02F00DF800F0BA
:1002400014F903B4FFF7F2FF03BC00F017F9000044
:100250000948804709480047FEE7FEE7FEE7FEE75A
:10026000FEE7FEE7FEE7FEE7FEE7FEE70448054996
:10027000054A064B70470000051B0008AD01000849
:10028000B8020020B8080020B8040020B8040020FC
:1002900053EA020C00F069802DE9F04B4FF00006A4
:1002A000002B1FBFB3FA83F503FA05F424FA05F611
:1002B0005E4012BF1643B2FA82F502FA05F4C5F1A8
:1002C00020051EBF22FA05FC44EA0C04203556EA3C
:1002D000044C4FEA144418BF641C4FF000084FF060
:1002E0000009904271EB030C39D3002919BFB1FA10
:1002F00081F701FA07F6B0FA80F700FA07F6C7F1BE
:1003000020071EBF20FA07FC46EA0C062037B6FB82
:10031000F4FCA7EB0507103F07F01F0BCBF12006FD
:100320002CFA06F60CFA0BFB44BFB3460026202F2E
:10033000A4BF5E464FF0000B5BEA060C08BF4FF00F
:10034000010B19EB0B0948EB0608ABFB027C06FB23
:1003500002CC0BFB03CCC01B71EB0C01C1E70B46BD
:10036000024641464846BDE8F08B13B5084318BF26
:100370004FF0FF300146AFF30080BDE81C407047EE
:100380004FF0000200B5134694469646203922BF2E
:10039000A0E80C50A0E80C50B1F12001BFF4F7AF79
:1003A000090728BFA0E80C5048BF0CC05DF804EB5B
:1003B000890028BF40F8042B08BF704748BF20F8C9
:1003C000022B11F0804F18BF00F8012B70477047C7
:1003D0007047704770B5064C7C44064D7D4404E080
:1003E0002046016808448047241DAC42F8D170BD06
:1003F000383000003C30000010B500F009F800680B
:1004000010BD10B5044600F003F8046010BD0000F4
:1004100000487047500000200048704750000020FE
:100420007546FFF7F9FFAE4605006946534620F0D2
:100430000700854618B020B5FFF718FFBDE820403B
:100440004FF000064FF000074FF000084FF0000B90
:10045000AC46ACE8C009ACE8C009ACE8C009ACE8FF
:10046000C00921F007018D46704710B50446AFF36F
:1004700000802046BDE81040FFF7E3BE0149182088
:10048000ABBEFEE72600020070470000FEE700005A
:1004900040F2D410C2F2000000F090B940F2D41043
:1004A000C2F2000000F08AB940F2D410C2F200009B
:1004B00000F084B940F2D410C2F2000000F07EB91E
:1004C0007047000072B600BFFEE7000090F82020E1
:1004D000013A012A08D8006800F1140200201368CC
:1004E00019431160704700BF00F1240201204FF44E
:1004F00080211368194311607047000010B590F80F
:1005000020E0D0F800C0AEF1010EBEF1010FDCF822
:1005100008E011D81EF0E05F18D0CEF3016E012084
:1005200000FA0EF018608B68D3B14868CC6844EAD2
:10053000C000034318E000BF00F1240101204FF484
:1005400080220B681A430A6010BD00BF00F124012D
:1005500001204FF400120B681A430A6010BD00BF5F
:100560000868CB6843EA40530CEB0E10C0F88031AA
:100570000B69C0F88431097D012905D100F5C271EC
:100580000B6843F480730B605168C0F88C111268DB
:1005900000F5C071C0F88821002001220B681A43C1
:1005A0000A6010BDB0B590F82020013A012A2FD87A
:1005B00046F20060C4F20000026842F001020260EC
:1005C000026822F47C520260D1F814E0CC694A6AD5
:1005D0000368012C43EA022202600EF01F024FF072
:1005E000010303FA02F2C3696FEA020C23EA020371
:1005F000C36113D02CBBC36803EA0C03C360CB6890
:100600008C8844EA034300EBCE0423640B4611E0DC
:10061000416A41F4802141620120B0BDC3681343A7
:10062000C3600B688C8844EA034300EBCE04236468
:1006300001F10C038C681B8843EA044300EBCE04F1
:10064000636443688D6943EA0204D1F810E0096AE3
:10065000002D08BF03EA0C0444604369BEF1000F9B
:1006600043EA020408BF03EA0C040129446102D1F1
:10067000C1691143C161016821F0010101600020DD
:10068000B0BD00007047000010B590F82040013C5C
:10069000012C7BD8D0F800C0002900F08180DCF864
:1006A0001040A40700F081800CEB011CDCF8B04185
:1006B0000CF5D87E14F004049460DCF8B04119BF46
:1006C000E4085460640D1460DEF800400CF5DA7E36
:1006D00004F00204D460DCF8B44124075ABFDEF809
:1006E000004004F00F0408241461DEF800400029E3
:1006F000C4F307249461DEF800404FEA14445461C7
:10070000DCF8B8211A70026802EB0112D2F8B821A5
:100710004FEA12225A70026802EB0112D2F8B82195
:100720004FEA12429A70026802EB0112D2F8B82125
:100730004FEA1262DA70026802EB0112D2F8BC21B1
:100740001A71026802EB0112D2F8BC214FEA1222A0
:100750005A71026802EB0112D2F8BC214FEA124230
:100760009A71026802EB0112D2F8BC214FEA1262C0
:10077000DA71006814BF00F1100100F10C010020D3
:1007800020220B681A430A6010BD00BF00F124014B
:1007900001204FF480220B681A430A6010BD00BF8D
:1007A000DCF80C40A4077FF47FAF00F124010120A6
:1007B0004FF400120B681A430A6010BD2DE9F04F88
:1007C00081B0044600684669D0F804908768D0F884
:1007D0000CB0D0F810A0D0F81880F10704D1002593
:1007E00030071DD424E000BFF90710D00121BA075B
:1007F000816009D4780700F1AF80380700F1B68036
:10080000204600F03FFA02E0204600F03DFA0025C5
:10081000F80500F18780F80300F1B180300707D5B3
:100820001BF0100004D0206845F400751021C16051
:10083000700708D51BF0080005D020680821C160AA
:10084000204600F0B9F9B00706D52068C0688007D7
:1008500002D0204600F0B2F9700607D51AF0100059
:1008600004D0206845F4806510210161B00608D5E8
:100870001AF0080005D0206808210161204600F028
:10088000CDF9F00606D520680069800702D0204621
:1008900000F0C6F9B00308D519F0100005D02068A3
:1008A00010214160204600F0BDF9F00308D519F091
:1008B000080005D0206808214160204600F0EEF9CC
:1008C000300440F19B805FEA497040F1948006F467
:1008D000807008EA102028435FEA8871014648BF0B
:1008E00041F00201B20558BF01465FEA48700D466B
:1008F00048BF45F00405700558BF0D46300540F16E
:100900007A8018F0700000F0768010380009052811
:100910006CD8DFE800F003595D61656945F00805B2
:1009200064E000BF20684FF48071BA0581600BD489
:10093000780515D438051DD4204600F0A7F9F80332
:100940007FF56CAF1BE000BF204600F0A1F9F80373
:100950007FF564AF13E000BF4FF4006558E700BFB8
:1009600005F50055F8037FF559AF08E04FF48055C1
:100970004EE700BF05F58045F8037FF54FAF2068CF
:100980004FF48031BA0381600AD4780310D438035D
:1009900014D4204600F07EF930073FF541AF47E719
:1009A000204600F079F930073FF53AAF40E700BF45
:1009B00005F5004530073FF533AF39E705F58035DC
:1009C00030073FF52DAF33E745F010050EE000BFCF
:1009D00045F020050AE000BF45F0400506E000BFF5
:1009E00045F0800502E000BF45F48075206881690C
:1009F00021F07001816120680421416055B1606A75
:100A000040EA05012046616201B0BDE8F04FFFF702
:100A100039BE00BF01B0BDE8F08F0000B0B5C8B16D
:100A2000044690F8200010B9204600F071F82068C4
:100A3000016841F00101016000F006FA054600BFBF
:100A400020684168C90707D100F0FEF9401B0B2858
:100A5000F6D312E00120B0BD016821F0020101606F
:100A600000F0F2F9054600BF2068416889070DD5FE
:100A700000F0EAF9401B0B28F6D3606A052140F428
:100A800000306062012084F82010B0BD217E026831
:100A9000012922F0800208BF80320260617E026874
:100AA000012922F0400208BF40320260A17E0268A4
:100AB000012922F0200208BF20320260E17E026894
:100AC000012922F0100218BF10320260217F026853
:100AD000012922F0080208BF08320260617F026823
:100AE000012922F0040208BF04320260D4E901C2E5
:100AF000D4E9033561691A432A431143ACF1010279
:100B00001143C16100200121606284F82010B0BD52
:100B100080B586B0016846F20040C4F20000814210
:100B200002D006B080BD00BF002143F63002019123
:100B3000C4F20202136900F5D43043F0007313616C
:100B4000136903F000730193019B0191136843F053
:100B5000080313601268022302F008020192019A4E
:100B6000CDE9023109210322059101A901920492E4
:100B700000F096F813200021002200F0E9F913207C
:100B800000F0D2F914200021002200F0E1F9142035
:100B900000F0CAF915200021002200F0D9F9152033
:100BA00000F0C2F916200021002200F0D1F9162031
:100BB00000F0BAF906B080BD7047000010B50068BB
:100BC00046F20041C4F20001884218BF10BD40F255
:100BD0008C2440F2D410C2F2000440F28423C2F20A
:100BE0000000C2F2000300212246FFF74DFD2068FD
:100BF00040F2012188420FD140F2BC04C2F200044D
:100C000040F28421C2F20001204601F03BF9204667
:100C1000BDE8104001F0BCB910BD000070470000F5
:100C20007047000070470000B0B5044690F82000FF
:100C300001281DD1022084F820002068016821F0DD
:100C40000101016000F000F9054600BF206840681E
:100C5000C00713D000F0F8F8401B0B28F6D3606AE9
:100C600040F400306062052084F820000120B0BD0F
:100C7000606A40F4002060620120B0BD0020606224
:100C8000B0BD0000704700007047000070470000D2
:100C90007047000070470000704700007047000078
:100CA0002DE9F04F82B000F13E4242F2004502F1E0
:100CB000FF77C4F202050A2243F6004E4FEAB72638
:100CC000A84208BF0922C4F2010E092E38BF4FEA1C
:100CD000B7220125002600274FF00008009208E007
:100CE00008F101080437B8F1100F06F1020600F010
:100CF000A7800C6805FA08F914EA090FF0D0D1F8BA
:100D000004B003220BF0030CACF10104B240012C3F
:100D10006FEA020A10D88268CC6802EA0A02B4407C
:100D2000224382604268CBF3001422EA090204FAEB
:100D300008F42243426005E0BCF1030F02D14FF0FA
:100D4000030C20E0C2688C6802EA0A02B440224325
:100D5000BCF1020FC26016D16FF0030202EA580222
:100D60000244D2F820C007F01C050F230C69AB40E9
:100D70002CEA030304FA05F52B431362D1F804B0FF
:100D800001250BF0030C02680CFA06F302EA0A02D2
:100D90001A431BF4403F0260A2D0002243F64403F2
:100DA0000192C4F202031A684FF6084C42F48042E2
:100DB0001A601A68CFF6FF7C02F480420192019A11
:100DC00028F00302724452F80C3007F00C050F248F
:100DD000AC40A343009C04FA05F52B4342F80C30C9
:100DE000DEF808204B6842EA090543F60C4CDC02A9
:100DF00058BF22EA0905CEF80850C4F2010CDCF80D
:100E000000209C0242EA090558BF22EA0905CCF8F5
:100E10000050DEF804209C0342EA090558BF22EA8C
:100E20000905CEF80450DEF80020DB0342EA09058C
:100E300058BF22EA0905CEF80050012550E700BF4F
:100E400002B0BDE8F08F000040F2B020C2F2000016
:100E50000068704740F2000040F2B021C2F200008A
:100E6000C2F2000100780A68104408607047000070
:100E700080B543F60040C4F20200016841F40071FD
:100E80000160016841F480610160016841F4807192
:100E90000160032000F088F80F2000F005F800F052
:100EA00027F8002080BD000070B540F20006C2F2B5
:100EB000000640F208013278C2F200014FF47A7362
:100EC0000968B3FBF2F20446B1FBF2F1084600F008
:100ED00059FB0F2C4FF0010508D838B94FF0FF30FF
:100EE00021460022002500F033F87460284670BDCA
:100EF00082B0002043F640010190C4F202014A682A
:100F000042F480424A604A6802F480420192019AA7
:100F10000090086840F080500860086800F0805039
:100F20000090009802B07047002848BF7047C1B2D7
:100F300000F01F00012202FA00F04EF20012CEF281
:100F4000000242EAD10121F003010860704700006D
:100F500010B54EF60C5CCEF2000CDCF80030C3F39A
:100F6000022E8EF00704042C28BF0424BEF10303D4
:100F70004FF0FF3E0EFA04F438BF0023A14399401E
:100F80000EFA03F39A43114300F00F0200F160439D
:100F90000901043A03F564436244002848BF02F1A2
:100FA0000C03197010BD00004EF60C51CEF200017A
:100FB0000A684FF6FF031A4060F30A2242F080608D
:100FC00040F0FD700860704770B582B0002001905D
:100FD00043F64000C4F202000168402641F080510F
:100FE00001600068C4F20E2600F080500190019864
:100FF00047F204050120C4F200053060FFF724FF2A
:10100000044600BF2868C00306D4FFF71DFF001B7D
:10101000B0F57A7FF6D90EE001207060FFF714FF7B
:10102000044600BF2868800308D4FFF70DFF001BAB
:10103000B0F57A7FF6D9032002B070BD002002B06F
:1010400070BD00002DE9F041002800F08B8043F6D0
:101050000808C4F202080446D8F8F8030D4600F068
:101060000F00884207D288F8F853D8F8F80300F048
:101070000F00A84276D12068810717D5410705D512
:10108000D8F8001041F4E051C8F80010010705D568
:10109000D8F8001041F46041C8F80010D8F80010EA
:1010A000A26821F0F0011143C8F80010C0073FD139
:1010B000D8F8F80300F00F00A84207D988F8F853D1
:1010C000D8F8F80300F00F00A8424BD12068410780
:1010D00007D5D8F80010E26821F4E0511143C8F8B0
:1010E0000010000708D5D8F80000216920F46040FE
:1010F00040EAC100C8F8000000F054F8D8F8001029
:1011000043F2E432C1F30311C0F60002515C40F235
:10111000080220FA01F140F20400C2F20000006867
:10112000C2F200021160FFF7BFFE0020BDE8F081AF
:101130006068811E022907D258F8081C89015CBF2B
:101140000120BDE8F08111E0012807D158F8081C02
:1011500089035CBF0120BDE8F08107E058F8081C56
:10116000890703D40120BDE8F08100BFD8F8001042
:1011700021F003010843C8F80000FFF765FE0646AA
:1011800041F28837D8F80000616800F00C00B0EB3D
:10119000810F8DD0FFF758FE801BB842F2D9032093
:1011A000BDE8F08110B543F60404C4F2020460689F
:1011B00000F00C0008280BD0042819BF42F20040B0
:1011C000C0F2F40041F60030C0F2B70010BD00BF1D
:1011D000206821682368490241F60031C0F2B70156
:1011E00000F03F02C3F388105CBF42F20041C0F23E
:1011F000F401A1FB00010023FFF74AF82168022255
:10120000C1F3014102EB4101B0FBF1F010BD000060
:101210002DE9F04182B0002868D00446007843F6FA
:101220000006C007C4F202060BD0B06800F00C0044
:10123000042840F09F803068800302D56068002851
:1012400054D0207880071AD5B06810F00C0F09D060
:10125000B06800F00C00082840F0A68070684002DA
:1012600000F1A2803068800702D5E06801283DD1F6
:101270003068216920F0F80040EAC1003060207831
:10128000000737D4207840074CD4A56955B3B0681F
:1012900000F00C00082840F0BB80012D26D07068BB
:1012A000E16900F480028A4220D1216A00F03F0205
:1012B0008A421BD147F6C071626A0140B1EB821FBE
:1012C00014D1A16A4FF6FF73C903994300F4403269
:1012D000A1F580318A4209D1E16A00F07060B0EB7B
:1012E000016F03D1002002B0BDE8F081012002B0FF
:1012F000BDE8F0816069002840F20000C4F2472098
:1013000076D00121C0F8801EFFF79EFD054600BF84
:10131000706F8007B6D4FFF797FD401B0228F7D9FE
:10132000DDE000BF306C10F080580AD10020019041
:10133000306C40F080503064306C00F08050019090
:10134000019847F20007C4F200073868C00541D48D
:10135000386840F480703860FFF776FD054600BFBE
:101360003868C00536D4FFF76FFD401B0228F7D957
:10137000B5E000BFB06800F00C00082803D1706829
:1013800040023FF558AF6068B0F5803F07D0B0F538
:10139000A02F40F08D80306840F4802030603068AD
:1013A00040F4803030608DE0E068002852D00020AA
:1013B000C4F2472001210160FFF746FD054600BF4A
:1013C000306880073FF554AFFFF73EFD401B022811
:1013D000F6D984E0A068012805D005284ED1306FE9
:1013E00040F004003067306F40F0010030674FE09C
:1013F0000021C0F8801EFFF727FD0546706F8007AB
:101400007FF540AFFFF720FD401B0228F6D966E0CC
:101410000027C4F2472700203866FFF715FD022D8C
:1014200005460BD1306880015ED5FFF70DFD401BEE
:1014300002284FF00300F5D955E700BF306880015E
:101440007FF550AFFFF700FD401B02284FF003006F
:10145000F4D948E70020C4F2472000210160FFF7DB
:10146000F3FC0546306880077FF509AFFFF7ECFC19
:10147000401B02284FF00300F4D934E7316F0028F5
:1014800021F001013167316F21F0040131674DD046
:10149000FFF7DAFC054641F2883700BF306F80075E
:1014A00056D4FFF7D1FC401BB842F7D917E000BF74
:1014B0003168002821F480313160316821F48021C5
:1014C00031604FD0FFF7C0FC054600BF3068800395
:1014D0003FF5B7AEFFF7B8FC401B6428F6D90320F0
:1014E00002B0BDE8F08100BF04F11C052FCD084318
:1014F00040EA8210D9034FF6FF729143A1F5803183
:1015000040EA05600843706001203866FFF79CFCE4
:10151000044600BF306880013FF5E4AEFFF794FC5D
:10152000001B02284FF00300F4D9DCE6FFF78CFC27
:10153000054641F2883700BF306F800708D5FFF7B6
:1015400083FC401BB8424FF00300F5D9CBE600BF47
:10155000B8F1000F7FF499AE306C20F08050306409
:1015600093E600BFFFF770FC054600BF30688003BC
:101570007FF567AEFFF768FC401B64284FF003005F
:10158000F4D9B0E6411E0020B0EB116F1CBF012062
:1015900070474EF21002CEF2000251604EF6235117
:1015A000CEF20001F0230B700721906011607047AC
:1015B000704700007047000010B590F83C20012AE9
:1015C0004FF0020251D080F83D200268D2F804E0CA
:1015D000D2F808C00C682EF07003234341F2FF7468
:1015E000C4F20004A24253600EDC40F2FF73C4F266
:1015F00000039A4216DCB2F1804F2BD040F2004338
:10160000C4F2000324E000BF40F2FF33C4F2010340
:101610009A4213DC41F60003C4F200039A4219D047
:10162000002313E040F60003C4F200039A4211D0F5
:1016300040F60043C4F200030AE000BF44F2000396
:10164000C4F201039A4205D040F20043C4F2010300
:101650009A4204D149682CF080031943916001211A
:10166000002280F83D1080F83C20104610BD00009C
:10167000002804BF0120704710B5044690F83D00D3
:1016800028B9002084F83C00204600F01FF8022012
:1016900084F83D002068211D00F044FA012084F800
:1016A000460084F83E0084F83F0084F8400084F847
:1016B000410084F8420084F8430084F8440084F830
:1016C000450084F83D00002010BD000080B582B0C8
:1016D000006841F20001C4F2000188421CBF02B060
:1016E00080BD0020019043F64000C4F20200016872
:1016F000002241F0100101600068002100F010009C
:10170000019001983620FFF723FC362002B0BDE897
:101710008040FFF709BC000090F83D1001291CBF74
:1017200001207047022180F83D10006841F2FF72ED
:10173000C168C4F20002904241F00101C1600DDCB9
:1017400040F2FF71C4F20001884215DCB0F1804F15
:101750002AD040F20041C4F2000123E040F2FF3100
:10176000C4F20101884213DC41F60001C4F2000119
:10177000884219D0002113E040F60001C4F20001B4
:10178000884211D040F60041C4F200010AE000BFD7
:1017900044F20001C4F20101884205D040F2004148
:1017A000C4F20101884206D1816801F007010629CF
:1017B00004BF00207047016841F001010160002072
:1017C000704700007047000070B504460068C568A7
:1017D0000669B10716D515F0020113D06FF00201AA
:1017E0000161012121778069800703D02046FFF73E
:1017F000E9FF05E0204600F08FF8204600F08EF863
:1018000000202077700719D515F0040016D0206845
:101810006FF00401016102212177806910F4407F9B
:1018200004D02046FFF7CEFF06E000BF204600F0C0
:1018300073F8204600F072F800202077300717D5A3
:1018400015F0080014D020686FF008010161042130
:101850002177C069800703D02046FFF7B3FF05E07A
:10186000204600F059F8204600F058F80020207774
:10187000F00619D515F0100016D020686FF0100191
:10188000016108212177C06910F4407F04D020460F
:10189000FFF798FF06E000BF204600F03DF8204625
:1018A00000F03CF800202077F00718BF15F0010089
:1018B00002D1300609D412E020686FF00101016105
:1018C000204600F02DF8300609D515F0800006D02E
:1018D00020686FF0800101612046FFF769FE700605
:1018E00009D515F0400006D020686FF04001016175
:1018F000204600F02DF8B00658BF70BD15F020004E
:1019000008D021686FF0200220460A61BDE87040CF
:10191000FFF750BE70BD0000704700007047000028
:1019200040F2FC11C2F2000100680968884218BF49
:10193000704740F2D41040F2380140F2A822C2F2BF
:101940000000C2F20001C2F200020023FEF7D6BD81
:1019500070470000FEE7000080B540F2D41046F268
:101960000041C2F20000C4F200010322002380E81B
:101970000E0000F10C014FF4102C4FF4401E81E8D2
:10198000085083618383FFF749F8002808BF80BDB2
:10199000BDE88040FEF796BD83B0002043F63001DD
:1019A0000290C4F202010A6842F001020A600A6869
:1019B00002F001020292029A01900A6842F00802C3
:1019C0000A600A6802F008020192019A0090086811
:1019D00040F080000860086800F0800000900098E7
:1019E00003B0704780B582B040F2FC1041F20002B3
:1019F0000021C2F20000C4F2000242F227334FF08D
:101A0000090CCDE90011C0E90023C0E9021C816185
:101A1000FFF72EFE002818BFFEF754FD40F2FC1021
:101A2000C2F200006946FFF7C7FD002818BFFEF7A5
:101A300049FD02B080BD0000FEE70000FEE70000A7
:101A40007047000070470000FFF704BA80B592B0FD
:101A5000002043F64001CDE90A00CDE908000590D9
:101A6000CDE90300CDE901000090C4F202010A684B
:101A700042F080520A60096801F08051009100999B
:101A8000009047F20000C4F20000016841F44041B8
:101A9000016000684FF4800100F44040009000981D
:101AA000012006904FF480300D910621079002200E
:101AB0000E91B4210C90CDE90F100420119006A8CE
:101AC000FFF7A6FB10B172B6FEE700BFFFF77CFA86
:101AD00010B172B6FEE700BF0F2001900220029005
:101AE000002003904FF4A05004904FF480500590D4
:101AF00001A80521FFF7A6FA10B172B6FEE700BFF4
:101B000012B080BD4EF68850CEF20000016841F45C
:101B1000700101607047000040F2FC10C2F200004A
:101B2000FFF752BEB0B540F6FF3E0568C4F2000EA6
:101B300040F2004C7045C4F2010C27DCB0F1804F3C
:101B400031D040F20043C4F2000398422BD040F65B
:101B50000003C4F20003984225D041F6FF73C4F29B
:101B6000000398422ADC70453CDCB0F1804F5FD026
:101B700040F20043C4F20003984259D040F60003FB
:101B8000C4F20003984253D057E000BF40F6004330
:101B9000C4F20003984206D0604504D00023C4F28A
:101BA00001039842D9D14B6825F0700243EA02053F
:101BB00041F6FF73C4F200039842D4DD43F6FF738D
:101BC000C4F20103984221DC42F20003C4F2000394
:101BD00098422DD00023C4F20103984228D06045DA
:101BE00026D02AE040F60043C4F2000398421FD0FA
:101BF00041F60003C4F20003984219D041F60043B5
:101C0000C4F20003984213D017E000BF44F200036F
:101C1000C4F2010398420BD044F60003C4F201035E
:101C2000984205D044F20043C4F20103984204D123
:101C3000CB6825F4407243EA02050A688C684B6958
:101C4000C46240F480648262644504BF0969016330
:101C5000026825F0800142F004021943026001226B
:101C600042610160B0BD0000FEE7000080B540F2B7
:101C700044204CF6F74C46F24203002148F21F5232
:101C8000C2F20000C3F6920C4FF0000EC3F6E5332B
:101C9000C4F24001C3F66B72C0E900CEC0E9023263
:101CA000C0E90411BDE8804000F0CCBA2DE9F04352
:101CB00081B040F2BC04C2F2000420465021FEF77D
:101CC0005FFB4CF6F748C3F69208204646F24209FD
:101CD000002648F21F5740F8548F0025C3F6E53917
:101CE000C4F24006C3F66B77C4E91659C4E9187606
:101CF000A66600F0A7FA204640F8948FC4E926595A
:101D0000C4E92876C4F8A86000F09CFA44F8D48F9F
:101D10002046C4E90159C4E90376666100F092FAED
:101D200049F69A10C4F2991044F8840C0020C4F2C9
:101D3000FA3084F8405044F8A80C01B0BDE8F083B4
:101D4000B0B52DED088B10EE100AB0EE408A01F010
:101D5000D9F99FED319BB5EE408A0446F1EE10FAB9
:101D60000D4609DBB2EE000AB4EE408AF1EE10FA3D
:101D700002DC9FED2B0B3BE0B2EE000A9FED2AAB9D
:101D8000B4EE408AF1EE10FA0CDB9FED2B0B2046EF
:101D900053EC102B294601F0FCF918B19FED240BF0
:101DA00022E000BFBAEE00BAB4EE4B8AF1EE10FAB0
:101DB00008DBB5EE408AF1EE10FA03DC9FED200B54
:101DC00016E000BF9FED220B9FED239A53EC102BE2
:101DD0002046294601F0E4F9C0B9B4EE4B8AF1EE91
:101DE00010FA13DC9FED180BB0EE4A9AF0EE6A9AE7
:101DF00051EC100B22462B4600F0D6FC53EC192B6D
:101E000000F086FD00F09EFC09EE100AB0EE490AD3
:101E1000BDEC088BB0BD00BF000000000000044016
:101E2000000000000000E0BF6666666666660A4065
:101E3000666666666666FE3F9A9999999999264004
:101E4000000000000000E03F666666666666FEBF52
:101E50009A999999999926C000000000091A02EEF2
:101E6000101A31EE601AB8EEC22A81EE021A02EEA2
:101E7000100AB8EEC22A30EE420A21EE000A30EE15
:101E8000200A7047B0B50D460988044608BA000C10
:101E900000EE100A40F20C00C2F2000001789FED43
:101EA000351AB8EE400A20EE010A29B1002184ED6E
:101EB000020AA162017032E094ED021A94ED042A44
:101EC00030EE410A9FED2D3A30EE421AB4EE431A3D
:101ED000F1EE10FA84ED030A84ED051A02DD9FEDA0
:101EE000262A08E09FED272AB4EE421AF1EE10FAF6
:101EF00005DA9FED232A31EE021A84ED051A94EDDE
:101F0000142A84ED040A81EE021A94ED002A31EEBF
:101F1000022A84ED002A84ED011A84ED0A2A6888D9
:101F20009FED191AC0BA00EE100AB8EEC00A84ED8F
:101F3000070A84ED0C0AA8889FED142AC0BA00EEA7
:101F4000100AB8EEC00A30EE010A20EE020ABBEE1B
:101F5000041A30EE010A84ED130AFFF7F1FE84ED56
:101F6000120AA87900EE100AB8EE400A84ED080AB9
:101F7000B0BD00BFA005343D0000B4C30000344331
:101F80000000B443000034C3000080460000A03AC3
:101F9000F0B581B02DED048B90ED0A0ADFED6E0AED
:101FA000044600F08FF9B0EE409A94ED0B0AD4EDA0
:101FB0000C0A04F1540000F0DFF840F2BC00C2F259
:101FC000000090F81401B0EE408A022818BF0128E2
:101FD00040F08C8040F2B000C2F2000080ED008A38
:101FE00018EE100A01F08EF8B8EE081AB4EE418A25
:101FF000F1EE10FA18DBB0EE080AB4EE408AF1EE0A
:1020000010FA11DC9FED480B53EC102B00F08EFE04
:102010009FED470B044653EC102B0D4600F0C4FB1C
:102020009FED450B2CE000BFB0EE080AB4EE408AED
:10203000F1EE10FA06DBB1EE000AB4EE408AF1EEE2
:1020400010FA0DDDB9EE002A9FED440AB4EE428A83
:10205000F1EE10FA2BDBB4EE418AF1EE10FA26DC39
:102060009FED370B53EC102B00F060FE9FED360B0D
:10207000044653EC102B0D4600F096FB9FED340BFD
:1020800006460F4653EC102B2046294600F08CFBE9
:10209000B5EE408AF1EE10FABCBF0F46064647EC9B
:1020A000106B51EC100B00F04DFB00EE100A40F2EB
:1020B000B004DFED2F0A9FED2F1AC2F200046FF07B
:1020C0001300142184ED010AFFF7C8FE84ED020A13
:1020D00000F050F940F2A82100BAC2F20001000C51
:1020E0000880BDEC048B01B0F0BD00BF0028F8D122
:1020F0009FED1B0A9FED1B1A9FED1B2A39EE000A6C
:10210000B4EE419AF1EE10FAC8BFB0EE409A29EE53
:10211000020A80EE010A00F08FF99FED141A20EEFA
:10212000018A57E700BF00BF000000000000044024
:10213000000000000000E03F000000000000E0BFE1
:102140006666666666660A40666666666666FEBFC0
:10215000666666666666FE3F0000B44300000000E7
:102160000000B4C300003443D00F4940D19F793EF2
:10217000000080C60000804680ED070A30EE601A3D
:1021800090ED0A0A90ED042A31EE000AB4EE420AFC
:10219000F1EE10FAC0ED080A80ED091A80ED0A0A86
:1021A00006DCB1EE422AB4EE420AF1EE10FA03DA8E
:1021B000B0EE420A80ED0A2A90ED0B2A90ED014A1A
:1021C00090ED025A31EE422A90ED003A90ED036A0A
:1021D00025EE022A90ED0F5AB7EE007A24EE000A9F
:1021E00090ED064A37EE467A21EE033A25EE075A7D
:1021F00022EE062A80ED0C3A33EE043A32EE052A3E
:1022000080ED0D0A30EE030A90ED053A32EE000A39
:10221000B4EE430AF1EE10FA80ED0E2A80ED060AC4
:1022200006DCB1EE433AB4EE430AF1EE10FA03DAFB
:10223000B0EE430A80ED063A80ED0B1A80ED0F2ACE
:102240007047000000218161C0E90911C0E90B114C
:10225000C0E90D11C1637047FEF70AFEFFF7F6FBF8
:10226000FFF79AFBFFF778FBFFF7BCFB40F2D414B3
:10227000C2F2000440F21001C2F200012046FEF753
:1022800091F92046FEF7D0FC20460221FEF71EF908
:1022900040F2FC10C2F20000FFF73EFAFEE74100F8
:1022A000080218BF04200A0E18BF40F001004FF0CA
:1022B0007F4232EA010108BF40F00200012808BF56
:1022C0000520704710B52DED028BF0EE408A18EE18
:1022D000900AB0EE608A20F00040C0F1FF40C00FCD
:1022E00007D118EE100A20F00040C0F1FF40C00FE7
:1022F0002BD018EE101A18EE900A00F0B3FF00EE83
:10230000100A10EE100A6FEAD05010F0FF0F04BF51
:10231000BDEC028B10BD18EE900A00F0004110EEEB
:10232000100A00F00040814204BFBDEC028B10BDDA
:1023300018EE101A10EE100ABDEC028B61F31E00AD
:1023400000EE900A30EE600A10BD18EE900A4FF0D1
:102350007F41B1EB400F1CBF18EE100A5FEA40004E
:10236000C7D10120FEF74DF8BDEC028BBDE810404F
:1023700000F02EB910B52DED028BF0EE408A18EE6C
:10238000900A00F0EFFF08EE100A18EE900AB7EE80
:10239000000A78EEC80A10F0004F4FF07F4010EEB0
:1023A000901A12D0B1F13F4F24BF10EE901AB0EB4B
:1023B000410F12D210EE901AB1F17C5F1CDD10EECD
:1023C000901AB0EB410F17D314E0B1F13F4F07D98A
:1023D00010EE901AB0EB410F02D338EE408A0BE0BA
:1023E00010EE901AB1F17C5F06DB10EE901AB0EBA4
:1023F000410F01D338EE008A18EE101AB1F19E4F4A
:1024000004DB18EE101AB0EB410F09D218EE101AC7
:10241000B1F14F4F07D918EE101AB0EB410F02D3AC
:102420000120FDF7EEFF18EE100ABDEC028BBDE8AF
:10243000104000F0BCBE000000B510EE101A2DEDEB
:10244000028B81B0524A6846B2EB410F2ED94FF051
:10245000E640B0EB410F94BF00204FF0FF300090FA
:102460000098B0EE408A00286ADB10F0010F4BD0D4
:1024700068EE080A9FED471A9FED470A00EE810AB1
:102480009FED461A10F0020F00EE801AB7EE000A18
:1024900000EE810A02BF01B0BDEC028B00BD00BF9F
:1024A00001B0B1EE400ABDEC028B00BD3C4B21F007
:1024B0000042934241D911F0004FDFED3A0A20EE7D
:1024C000201ADFED390A19BF31EE601A71EE200AC9
:1024D00031EE201A71EE600ABDEEE01A11EE100A1C
:1024E0009FED321A00F0030000EEC10A9FED301A92
:1024F000009000EEC10A9FED2F1A00EEC10A9FED79
:102500002E1A00EEC10AABE728EE080A9FED2B1A3F
:10251000DFED2B0A10F0020F40EE010A9FED291AA1
:1025200000EE201A61EE000AB0EE480A08EE200A1A
:10253000B6D101B0BDEC028B00BD00F059F88FE7B9
:1025400018EE100A4000B0F17F4F0DD218EE100ABD
:10255000FFF7A5FE042808BF00F042F8B0EE480AD5
:1025600001B0BDEC028B00BD09D10120FDF749FF90
:1025700001B0BDEC028B5DF804EB00F029B801B0AE
:10258000B0EE480ABDEC028B5DF804EB00F01CB81D
:10259000B61F927EB93AB2BACA9F2A3DDDFFFFBE8E
:1025A000490E494683F9223F0000004B0000C93F15
:1025B00000A0FD390020A2331A61342C336D4CB9D0
:1025C000DA82083CA0AA2ABE30EE000A704700005A
:1025D000DFED020A80EEA00A704700000000000054
:1025E0009FED020A20EE000A704700000000001074
:1025F0002DE9F0014FF07F42B2EB410F9FBF4FF04A
:10260000FF310160BDE8F00170474FF0004242EA3F
:102610000123C1F3C752783A551112F01F0C434CF5
:10262000CCF120067C44C1F3C752A2F178024FEAF4
:10263000621204EB820254F8254008BFD2E9015629
:1026400012D0556804FA0CF425FA06F73C43976853
:1026500005FA0CF527FA06F8D26807FA0CFCF240E6
:1026600045EA08054CEA0206A4FB034CA5FB03520D
:10267000A6FB03631D449D4234BF012600261319A7
:10268000334416B1934202D903E0934201D20122AE
:1026900000E00022624402F1200C9206DC0C42EAC7
:1026A000443200EE102A5B03DFED210AF8EEC01A77
:1026B00000EE103A4FEA9C1C11F0004FB8EE400AB1
:1026C000C0F800C020EE201A00EE105ADFED190A03
:1026D000B8EE400A20EE200A71EE810A70EE800A00
:1026E00010EE902A02F500626FF30B0200EE902AC2
:1026F00070EEE11A31EEC11ADFED101A30EE411A18
:102700009FED0D0A20EE800A01EE210A9FED0C1AC2
:1027100000EE810A04BFBDE8F0017047CCF18051A2
:102720000160BDE8F001B1EE400A70479C0D000069
:10273000000000360000802C22AAFD29DB0FC92FE3
:102740000000C92F21F0004201F00043A2F16052C5
:10275000B2F5801F28BFD2F17F6C0BD95FEA001C55
:1027600043EAC20242EB507018BF704728BF20F006
:1027700001007047B2F5801FBCBF184670474FEA92
:10278000410C1CF5001F02D2084600F0E5BD70B5F3
:1027900000F076FB00000089FFF7F6BF4FF0004025
:1027A000A0F580007047000010B591EA030F48BF04
:1027B00083F0004300F1C083841A71EB030C05D24F
:1027C000121943EB0C03001B61EB0C014FEA11548F
:1027D000A4EB135CDFF81CE11EEA430F18BF9EEA6E
:1027E000445F00F0748021EA045123EA0E0343F4AD
:1027F0008013DCF1200E32D322FA0CFE10EB0E0017
:1028000023FA0CFE41EB0E01CCF1200E03FA0EFE72
:1028100010EB0E00CCF1200E51F10001B1F5801F3C
:1028200032D201EB045112FA0EF2BDE8104058BF4B
:102830007047401C38BF5FEA420218BF704700284B
:1028400014BF20F0010041F100014FEA410313F5EC
:10285000001F38BF7047A1F1C04100F05FBB012AE3
:1028600043EB0302ACF1200CDCF11F0E32BF4FF042
:10287000000E23FA0CF310EB030041EB0451B4EB10
:10288000115FD0D0A1EB045101F58011490801EB93
:1028900004515FEA30000ED350F1000038BF12FA45
:1028A0000EFE08D1BDE81040C9E7401C38BF5FEA02
:1028B0004202CAD1C3E7BDE810404FEA410313F515
:1028C000001F38BF7047A1F1C04100F027BB9EEA4E
:1028D000445F08D011EA5E0FBDE8104004BF01F06C
:1028E000004100207047BDE8104070B500F0C8FA04
:1028F00064FBBE3E0000E0FF491058BFC1F14041FB
:102900005B1058BFC3F140438B42EFF30080704728
:102910002DE9C04130B4DFF8A4C23CEA111418BF5D
:102920003CEA131400F0ED801CEA111481EA03055F
:1029300044EAD57418BF1CEA131500F0C880A4EB54
:10294000050404F17F7404F500344FF0004545EAB6
:10295000C12145EAC32341EA505143EA52534FEAA9
:10296000C0204FEAC222994208BF904200F09D80E9
:102970004FEA13650FF24416765D4FEA134506FBE6
:1029800005F7C7F1807706FB07F74FEAD737A7FBB4
:1029900003687642A7FB06CEC8F5803838BFA8F199
:1029A000010807FB08E6A6FB028C4FF0000EE6FBD1
:1029B00003CEDCF1000CCEF1004E38BFAEF1010EBB
:1029C000A6FB0C584FF00007E6FB0E87A1FB08C6DC
:1029D000A0FB07CE16EB0E064FF0000545F10005F3
:1029E000E1FB076515F1E04E7EBFA4F580345FEA98
:1029F00046066D4116F1800745F100054FEA17279D
:102A000047EA05674FEA15254FEA0666A6F1DE4656
:102A1000B6F1805F20D9384605EBC47124F0010C73
:102A200001EB0C11BCF1FE6F02D8F0BCBDE80081D7
:102A300024425CBF01F5801E9EEAC47F02D4F0BC34
:102A4000BDE80081244200F13980A1F1C041F0BC11
:102A5000BDE8004100F062BA4FEAD02040EA4150A0
:102A60004FEAD1214FEAD22242EA43524FEAD3231E
:102A7000A7FB028607FB036605FB02661EEA0E0F34
:102A800058BFA6EB0056B6EB00564FEA520E4EEA80
:102A9000C37E18EB0E0E56EB530EBCD518EB020896
:102AA0005E417F1C55F10005B5E74FF480154FF0EE
:102AB00000074FF000064FF00008ACE701F1C041FD
:102AC00001F000414FF00000F0BCBDE800810CEACD
:102AD000131511EA0C1F00D00CE013EA0C1F00F0D4
:102AE00026804FF0000081EA030101F00041F0BCB4
:102AF000BDE80081F0BCBDE8004181EA030100F0BF
:102B00000DBAF0BCBDE8004170B500F0B9F900BFE6
:102B1000097EFC3E00F007B84FF0000081EA030197
:102B200001F00041704781EA030100F0F7B9F0BC01
:102B3000BDE8004122494FF000007047FFFDFBF95E
:102B4000F7F5F4F2F0EEEDEBE9E8E6E4E3E1E0DEE0
:102B5000DDDBDAD8D7D5D4D3D1D0CFCDCCCBCAC852
:102B6000C7C6C5C4C2C1C0BFBEBDBCBBBAB9B8B779
:102B7000B6B5B4B3B2B1B0AFAEADACABAAA9A8A86C
:102B8000A7A6A5A4A3A3A2A1A09F9F9E9D9C9C9B3A
:102B90009A999998979796959594939392919190E5
:102BA0008F8F8E8E8D8C8C8B8B8A89898888878776
:102BB0008685858484838382828181800000FF07EB
:102BC0000000F87F51EA030C17D41CF5801F58BF92
:102BD000BCF5801F00F10680994218BF704708BFFE
:102BE0009042704707D711F5801F58BF13F5801F1B
:102BF00019D499427047894270471CF5801F08D547
:102C0000BCF5801FF7D58B4218BF704708BF8242C2
:102C100070474FF4001C1CEB410F38BF1CEB430FF7
:102C200001D28B42704770B500F02AF99224490016
:102C30004FF000514FF08053FFF75EBE51EA030C96
:102C400017D41CF5801F58BFBCF5801F00F106800B
:102C5000994218BF704708BF9042704707D711F5D7
:102C6000801F58BF13F5801F19D4994270478942BD
:102C700070471CF5801F08D5BCF5801FF7D58B4227
:102C800018BF704708BF824270474FF4001C1CEB0E
:102C9000410F38BF1CEB430F01D28B42704770B518
:102CA00000F0EEF8922449004FF080514FF00053AD
:102CB000FFF722BE51EA030C17D41CF5801F58BF42
:102CC000BCF5801F00F10680994218BF704708BF0D
:102CD0009042704707D711F5801F58BF13F5801F2A
:102CE00019D499427047894270471CF5801F08D556
:102CF000BCF5801FF7D58B4218BF704708BF8242D2
:102D000070474FF4001C1CEB410F38BF1CEB430F06
:102D100001D28B42704770B500F0B2F8922449009E
:102D20004FF000514FF08053FFF7E6BD70B5DFF86C
:102D300048C11CEA111E1EBF1CEA13159EEA0C0FA7
:102D400095EA0C0F00F06F8081EA03044EEAD47E0E
:102D5000AE4421EA4C1123EA4C1341F4801143F4B0
:102D60008013AEF17F7EA1FB024CA0FB03653619F8
:102D700055EB0C05A1FB034C4CF10003A0FB021C1E
:102D800016EB0C06654153F10003094218BF46F0EB
:102D9000010613F4007F0BD14FEA03314FEA0530EF
:102DA00041EA155140EA165034036FF003020AE07D
:102DB0004FEAC3214FEAC52041EA555140EA565037
:102DC000F4026FF0020202EB2E4201EB025585EA9B
:102DD000CE710AD05FEA440C18BF24F0004450F1D1
:102DE000000041F1000120EAD47040F2FE7C62450F
:102DF00000D270BDA84214BF4FF080444FF0404451
:102E0000002E08BF0024BEF1806FA8BFA1F1C04111
:102E1000BDE8704080F2828001F1C04101F00041C4
:102E20004FF0000070470CEA13159EEA0C0F18BF14
:102E300095EA0C0F06D081EA030E4FF000000EF069
:102E4000004170BD00F01CF88900013E00F007B899
:102E500000F009B84FEA430C5FEA5C5C08D081EAF5
:102E6000030100F05BB84FEA410C5FEA5C5CF6D10D
:102E700002494FF0000070470000FF070000F87F94
:102E80000EF1020E2EF0030E5EF8046B364205D4EE
:102E9000012A43EB030515F5001F12D8012841EB69
:102EA000010C1CF5001F0CD80ED14FEAD17C0CEBA5
:102EB0004C0C0CF1020C15F5001F08BF4CEBD37C39
:102EC00004E04FF0080C01E04FEAD37C0CEB4C051A
:102ED00026FA05F606F00706B6F1040C06D20EEB4C
:102EE000860CBDE870404CF0010C6047DFE80CF048
:102EF000090B02024FF00041A1F500214FF0000044
:102F000070BD19461046012851EB010418BFD4F5D5
:102F1000001484BF002001F0004170BD0808A0F536
:102F200000114FEA3101704710B591EA030F48BF15
:102F300083F000433FF540AC841A71EB030C07D2D9
:102F40008CF0004C121943EB0C03001B61EB0C01DD
:102F50004FEA1154A4EB135CDFF8A4E11EEA430F1F
:102F600018BF9EEA445F00F0B48021EA045123EACE
:102F70006E035242C3EB6E0338BF5B1EDCF1200EC2
:102F800025D322FA0CFE10EB0E0043FA0CFE41EBA7
:102F90000E01CCF1200E03FA0EFE10EB0E00CCF168
:102FA000200E51F1000129D401EB045112FA0EF266
:102FB000BDE8104058BF7047401C1CBFB2F1004F25
:102FC000704700280CBF491C20F00100704712EB2D
:102FD000020E43EB030218BF4FF0010E4EEA42020D
:102FE000ACF1200CDCF11E0E56D943FA0CFE10EBAE
:102FF0000E00CCF11E0E51F1FF31D5D50EF1010EB0
:1030000012FA0EFE404141EB010101EB445C5FEA24
:103010005C5C10D901EB045110EBDE7038BFBEF1DF
:10302000004FBDE8104018BF704700280CBF491C76
:1030300020F00100704734D24FEAD42C24F400640D
:1030400011F500111BD0B1FA81F20B3AA41AA41E9B
:10305000D2F12003914030FA03F31943904001EB81
:10306000CC7101EB0451002CBDE81040A8BF7047A3
:1030700001F1C04101F000414FF000007047B0FA8B
:1030800080F310FA03F102D1BDE810407047E41A52
:10309000173C4805C90AE2E701EB0451BDE81040BE
:1030A000704749104FEA300001EB0451BDE8104071
:1030B00002E04FF0000170474A0008BF0042F8D01C
:1030C000B2F5001F28BF704701F000414FF000002B
:1030D00070479EEA445F07D011EA5E0FBDE81040DA
:1030E00004BF002100207047BDE8104070B5FFF715
:1030F000C7FE00BF40DFF63E104683F00041704738
:103100000000E0FF43004FEAD30C4FEA3C0C434081
:103110001FBF40070CF1605113F0FE4F70471CF0C9
:10312000006F03D10CF00041002070470CF0004309
:1031300043EA507040EACC0010B500F03FF800BF01
:10314000000000924FEA0001FFF7E8BE4FF0004197
:10315000A1F500214FF00000704710B5FFF732FDD8
:103160000CBF0120002010BD10B5FFF72BFD14BFD0
:103170000120002010BD10B5FFF760FD8CBF0120BD
:10318000002010BD10B5FFF759FD2CBF0120002015
:1031900010BD10B5FFF78EFD94BF0120002010BDBB
:1031A00010B5FFF787FD34BF0120002010BD00EEF1
:1031B000100ABDEE401A11EE100A70470EF1020E11
:1031C0002EF0030E5EF8044B244204D44FEA410271
:1031D000B2F17F4F11D84FEA4003B3F17F4F0CD8C3
:1031E0000ED14FEAD07C0CEB4C0C0CF1020CB2F17E
:1031F0007F4F08BF4CEBD17C04E04FF0080C01E09E
:103200004FEAD17C0CEB4C0324FA03F404F00704DE
:10321000B4F1040C06D20EEB840CBDE810404CF067
:10322000010C6047DFE80CF0070802024FF0004095
:10323000A0F5800010BD0846420018BFD2F1807290
:1032400088BF00F0004010BDF1EE100A4FF6FF718C
:10325000C0F2C03120EA010040F04070E1EE100AF7
:10326000704700004FF07F4C3CEA410318BF3CEA36
:10327000400200F062804FF47F0C0CEAD11310F092
:10328000004F18BF43F005031CEAD01218BF13EA21
:103290000C0F00F057804FF0004C4CEA00204CEA35
:1032A0000121A3F580339A4210DD23F00203B0F12F
:1032B000004F06D343F00203401ABCBF404283F0E4
:1032C00001034FEA4000A2F58032ECE74FEA224CBE
:1032D000BCEB234F08DB884206D31CD0A0EB410097
:1032E000C0F1000083F0010340001DD217D40DD0BF
:1032F000B0FA80FC0CF1010C00FA0CF0A2EB0C42CD
:10330000D2F1000C12DB4FEAC37070474FEA4370F2
:1033100000F00040704713F0020FE5D0DEE74FEAFF
:103320004000B2F58032EBDD002AE9DD4FEAC2123F
:1033300042EA502040EAC370704710B5FFF73EFFE5
:10334000EDFFFF3E1CEAD11F02D000F000407047A5
:10335000004870470000C07FFF2141EAD050C005FF
:10336000704700005FEA400C5FEA1C6CBCF17F0311
:1033700014D4D3F1170240F31C804FF0010C0CFA67
:1033800002FCACF10103034020EA0300B3EB5C0252
:1033900008BF10EA0C0F88BF60447047B3F1FF3FCD
:1033A00028BF5FEA002C00F0004088BF40F07E504C
:1033B0007047BCF1FF0FB8BF704710B5FFF7FEFEB6
:1033C00040DBB6BE000000006E83F9A22915444E12
:1033D000D15727FCC0DD34F5999562DB4190433C21
:1033E000AB6351FE00000000000000000102030476
:1033F00006070809203400080000002050000000E3
:10340000E80100087034000850000020680800003F
:103410000402000859E8FFFF95E8FFFF00000000E4
:1034200001000000100000000024F4000100000072
:10343000000000000000000000000000000000008C
:10344000000000000000000000000000010000007B
:103450000100000000000000000200000000000069
:103460000000000000000000080000000000000054
:04000005080001AD41
:00000001FF
