:020000040800F2
:10000000780600204D020008E10D00081D0D0008D3
:10001000DD0D0008F9030008BD0E00080000000017
:10002000000000000000000000000000E90D0008D2
:10003000FD03000800000000E50D0008ED0D0008BC
:1000400067020008670200086702000867020008EC
:1000500067020008670200086702000867020008DC
:1000600067020008670200086702000867020008CC
:1000700067020008670200086702000867020008BC
:1000800067020008670200086702000867020008AC
:10009000670200086702000867020008670200089C
:1000A000670200086702000867020008670200088C
:1000B000670200086702000867020008670200087C
:1000C000670200086702000867020008670200086C
:1000D000670200086702000867020008670200085C
:1000E000670200086702000867020008670200084C
:1000F000670200086702000867020008670200083C
:10010000670200086702000867020008670200082B
:10011000670200086702000867020008670200081B
:10012000670200086702000867020008670200080B
:1001300067020008670200086702000867020008FB
:1001400067020008670200086702000867020008EB
:1001500067020008670200086702000867020008DB
:1001600067020008670200086702000867020008CB
:10017000670200086702000867020008000000002C
:1001800067020008670200086702000867020008AB
:10019000670200086702000867020008670200089B
:1001A00000000000000000006702000800F002F8F4
:1001B00000F03CF80AA090E8000C82448344AAF1C5
:1001C0000107DA4501D100F031F8AFF2090EBAE8C3
:1001D0000F0013F0010F18BFFB1A43F0010318477B
:1001E000480D0000680D0000103A24BF78C878C19F
:1001F000FAD8520724BF30C830C144BF04680C602D
:10020000704700000023002400250026103A28BF74
:1002100078C1FBD8520728BF30C148BF0B60704778
:100220001FB500F06CFE1FBD10B510BD00F0A9F8A1
:100230001146FFF7F5FF00F043FE00F0C7F803B4E6
:10024000FFF7F2FF03BC00F0CFF800000948804739
:1002500009480047FEE7FEE7FEE7FEE7FEE7FEE7A8
:10026000FEE7FEE7FEE7FEE704480549054A064BC0
:1002700070470000A90E0008AD01000878000020BA
:1002800078060020780200207802002053EA020C51
:1002900000F069802DE9F04B4FF00006002B1FBFE6
:1002A000B3FA83F503FA05F424FA05F65E4012BFAB
:1002B0001643B2FA82F502FA05F4C5F120051EBF15
:1002C00022FA05FC44EA0C04203556EA044C4FEAB5
:1002D000144418BF641C4FF000084FF0000990420E
:1002E00071EB030C39D3002919BFB1FA81F701FA78
:1002F00007F6B0FA80F700FA07F6C7F120071EBF2D
:1003000020FA07FC46EA0C062037B6FBF4FCA7EB04
:100310000507103F07F01F0BCBF120062CFA06F65D
:100320000CFA0BFB44BFB3460026202FA4BF5E4649
:100330004FF0000B5BEA060C08BF4FF0010B19EB06
:100340000B0948EB0608ABFB027C06FB02CC0BFB5F
:1003500003CCC01B71EB0C01C1E70B4602464146C2
:100360004846BDE8F08B13B5084318BF4FF0FF3087
:100370000146AFF30080BDE81C40704770477047EE
:100380007047754600F02CF8AE46050069465346A6
:1003900020F00700854618B020B5FFF765FFBDE8DF
:1003A00020404FF000064FF000074FF000084FF0DC
:1003B000000BAC46ACE8C009ACE8C009ACE8C00929
:1003C000ACE8C00921F007018D46704710B504461E
:1003D000AFF300802046BDE81040FFF730BF0000BB
:1003E000004870471000002001491820ABBEFEE70E
:1003F0002600020070470000FEE700007047000082
:10040000B0B5044600F0EAF8054640F20000C2F23A
:1004100000000078611C18BF044400BF00F0DEF843
:10042000401BA042FAD3B0BD2DE9F04F82B000F1DD
:100430003E4242F2004502F1FF77C4F202050A2271
:1004400043F6004E4FEAB726A84208BF0922C4F27D
:10045000010E092E38BF4FEAB722012500260027DA
:100460004FF00008009208E008F101080437B8F1E5
:10047000100F06F1020600F0A7800C6805FA08F9D3
:1004800014EA090FF0D0D1F804B003220BF0030CEA
:10049000ACF10104B240012C6FEA020A10D8826864
:1004A000CC6802EA0A02B440224382604268CBF37D
:1004B000001422EA090204FA08F42243426005E02B
:1004C000BCF1030F02D14FF0030C20E0C2688C682E
:1004D00002EA0A02B4402243BCF1020FC26016D104
:1004E0006FF0030202EA58020244D2F820C007F07B
:1004F0001C050F230C69AB402CEA030304FA05F535
:100500002B431362D1F804B001250BF0030C0268F1
:100510000CFA06F302EA0A021A431BF4403F026097
:10052000A2D0002243F644030192C4F202031A68E7
:100530004FF6084C42F480421A601A68CFF6FF7CEE
:1005400002F480420192019A28F00302724452F8A8
:100550000C3007F00C050F24AC40A343009C04FAB8
:1005600005F52B4342F80C30DEF808204B6842EAD0
:10057000090543F60C4CDC0258BF22EA0905CEF807
:100580000850C4F2010CDCF800209C0242EA090584
:1005900058BF22EA0905CCF80050DEF804209C037D
:1005A00042EA090558BF22EA0905CEF80450DEF8F0
:1005B0000020DB0342EA090558BF22EA0905CEF80C
:1005C0000050012550E700BF02B0BDE8F08F0000E9
:1005D000002A08BF090481617047000040F27000E2
:1005E000C2F200000068704740F2000040F2700163
:1005F000C2F20000C2F2000100780A6810440860EC
:100600007047000080B543F60040C4F20200016864
:1006100041F400710160016841F48061016001688A
:1006200041F480710160032000F074F80F2000F0A5
:1006300005F800F027F8002080BD000070B540F2FA
:100640000006C2F2000640F208013278C2F2000150
:100650004FF47A730968B3FBF2F20446B1FBF2F18E
:10066000084600F045FB0F2C4FF0010508D838B9BB
:100670004FF0FF3021460022002500F01FF8746083
:10068000284670BD82B0002043F640010190C4F2BC
:1006900002014A6842F480424A604A6802F4804299
:1006A0000192019A0090086840F080500860086844
:1006B00000F080500090009802B0704710B54EF6E0
:1006C0000C5CCEF2000CDCF80030C3F3022E8EF08E
:1006D0000704042C28BF0424BEF103034FF0FF3E9F
:1006E0000EFA04F438BF0023A14399400EFA03F335
:1006F0009A43114300F00F0200F160430901043AEC
:1007000003F564436244002848BF02F10C031970EA
:1007100010BD00004EF60C51CEF200010A684FF6F3
:10072000FF031A4060F30A2242F0806040F0FD703F
:100730000860704770B582B00020019043F6400019
:10074000C4F202000168402641F080510160006857
:10075000C4F20E2600F080500190019847F2040583
:100760000120C4F200053060FFF738FF044600BFE7
:100770002868C00306D4FFF731FF001BB0F57A7F6D
:10078000F6D90EE001207060FFF728FF044600BF95
:100790002868800308D4FFF721FF001BB0F57A7F9B
:1007A000F6D9032002B070BD002002B070BD000079
:1007B0002DE9F041002800F08B8043F60808C4F2D0
:1007C00002080446D8F8F8030D4600F00F008842EE
:1007D00007D288F8F853D8F8F80300F00F00A842C1
:1007E00076D12068810717D5410705D5D8F80010C4
:1007F00041F4E051C8F80010010705D5D8F8001001
:1008000041F46041C8F80010D8F80010A26821F047
:10081000F0011143C8F80010C0073FD1D8F8F80321
:1008200000F00F00A84207D988F8F853D8F8F80369
:1008300000F00F00A8424BD12068410707D5D8F837
:100840000010E26821F4E0511143C8F800100007DD
:1008500008D5D8F80000216920F4604040EAC100C2
:10086000C8F8000000F054F8D8F8001040F61872EC
:10087000C1F30311C0F60002515C40F2080220FAF5
:1008800001F140F20400C2F200000068C2F200026E
:100890001160FFF7D3FE0020BDE8F0816068811E83
:1008A000022907D258F8081C89015CBF0120BDE865
:1008B000F08111E0012807D158F8081C89035CBFBA
:1008C0000120BDE8F08107E058F8081C890703D42F
:1008D0000120BDE8F08100BFD8F8001021F003012D
:1008E0000843C8F80000FFF779FE064641F2883752
:1008F000D8F80000616800F00C00B0EB810F8DD0DB
:10090000FFF76CFE801BB842F2D90320BDE8F081EE
:1009100010B543F60404C4F20204606800F00C0051
:1009200008280BD0042819BF42F20040C0F2F4009E
:1009300041F60030C0F2B70010BD00BF206821684A
:100940002368490241F60031C0F2B70100F03F02CE
:10095000C3F388105CBF42F20041C0F2F401A1FB76
:1009600000010023FFF792FC21680222C1F301413C
:1009700002EB4101B0FBF1F010BD00002DE9F041A8
:1009800082B0002868D00446007843F60006C0070D
:10099000C4F202060BD0B06800F00C00042840F04E
:1009A0009F803068800302D56068002854D020788A
:1009B00080071AD5B06810F00C0F09D0B06800F0AD
:1009C0000C00082840F0A6807068400200F1A28068
:1009D0003068800702D5E06801283DD13068216980
:1009E00020F0F80040EAC10030602078000737D4DA
:1009F000207840074CD4A56955B3B06800F00C00CE
:100A0000082840F0BB80012D26D07068E16900F411
:100A100080028A4220D1216A00F03F028A421BD123
:100A200047F6C071626A0140B1EB821F14D1A16A1E
:100A30004FF6FF73C903994300F44032A1F58031AA
:100A40008A4209D1E16A00F07060B0EB016F03D116
:100A5000002002B0BDE8F081012002B0BDE8F081C5
:100A60006069002840F20000C4F2472076D00121DE
:100A7000C0F8801EFFF7B2FD054600BF706F80070B
:100A8000B6D4FFF7ABFD401B0228F7D9DDE000BF6D
:100A9000306C10F080580AD100200190306C40F08A
:100AA00080503064306C00F080500190019847F223
:100AB0000007C4F200073868C00541D4386840F424
:100AC00080703860FFF78AFD054600BF3868C005B2
:100AD00036D4FFF783FD401B0228F7D9B5E000BFED
:100AE000B06800F00C00082803D1706840023FF5A0
:100AF00058AF6068B0F5803F07D0B0F5A02F40F048
:100B00008D80306840F480203060306840F4803060
:100B100030608DE0E068002852D00020C4F2472009
:100B200001210160FFF75AFD054600BF30688007CC
:100B30003FF554AFFFF752FD401B0228F6D984E081
:100B4000A068012805D005284ED1306F40F0040080
:100B50003067306F40F0010030674FE00021C0F88F
:100B6000801EFFF73BFD0546706F80077FF540AFA5
:100B7000FFF734FD401B0228F6D966E00027C4F2D7
:100B8000472700203866FFF729FD022D05460BD1C7
:100B9000306880015ED5FFF721FD401B02284FF031
:100BA0000300F5D955E700BF306880017FF550AFED
:100BB000FFF714FD401B02284FF00300F4D948E76B
:100BC0000020C4F2472000210160FFF707FD054621
:100BD000306880077FF509AFFFF700FD401B022852
:100BE0004FF00300F4D934E7316F002821F0010100
:100BF0003167316F21F0040131674DD0FFF7EEFC12
:100C0000054641F2883700BF306F800756D4FFF7A2
:100C1000E5FC401BB842F7D917E000BF3168002857
:100C200021F480313160316821F4802131604FD06E
:100C3000FFF7D4FC054600BF306880033FF5B7AE30
:100C4000FFF7CCFC401B6428F6D9032002B0BDE8B6
:100C5000F08100BF04F11C052FCD084340EA82104B
:100C6000D9034FF6FF729143A1F5803140EA056048
:100C70000843706001203866FFF7B0FC044600BFEF
:100C8000306880013FF5E4AEFFF7A8FC001B0228A6
:100C90004FF00300F4D9DCE6FFF7A0FC054641F273
:100CA000883700BF306F800708D5FFF797FC401BDF
:100CB000B8424FF00300F5D9CBE600BFB8F1000F02
:100CC0007FF499AE306C20F08050306493E600BF22
:100CD000FFF784FC054600BF306880037FF567AEF0
:100CE000FFF77CFC401B64284FF00300F4D9B0E60A
:100CF000411E0020B0EB116F1CBF012070474EF267
:100D00001002CEF2000251604EF62351CEF20001E5
:100D1000F0230B700721906011607047FEE7000020
:100D20002DE9F04387B0002743F63000069701977E
:100D3000C4F20200016841F2000441F001010160C7
:100D40000168C4F2020401F00101019101990197C7
:100D50000168002241F08001016001684FF40066E3
:100D600001F08001019101990197016841F01001A2
:100D70000160016801F0100101910199019701687A
:100D800041F02001016000684FF4006100F0200094
:100D9000019001982046FFF71BFC04F5806528466A
:100DA0004FF4804100224FF48048FFF711FC029677
:100DB00002AE4FF0010920463146CDE90397059771
:100DC000FFF732FB28463146CDE90289CDE90477A9
:100DD000FFF72AFB07B0BDE8F0830000FEE7000044
:100DE000FEE700007047000070470000FFF7FCBB03
:100DF00080B592B0002043F64001CDE90A00CDE96C
:100E000008000590CDE90300CDE901000090C4F28F
:100E100002010A6842F080520A60096801F08051BC
:100E200000910099009047F20000C4F200000168B0
:100E300041F44041016000684FF4800100F44040FB
:100E400000900098012006904FF480300D9106210B
:100E5000079002200E91B4210C90CDE90F100420D0
:100E6000119006A8FFF78AFD10B172B6FEE700BF29
:100E7000FFF760FC10B172B6FEE700BF0F200190D3
:100E800002200290002003904FF4A05004904FF4F1
:100E90008050059001A80521FFF78AFC10B172B6B9
:100EA000FEE700BF12B080BD4EF68850CEF20000C3
:100EB000016841F47001016070470000FEE7000026
:100EC00041F20004C4F20204FFF79CFBFFF790FF1D
:100ED000FFF726FF20464FF400610022FFF778FB62
:100EE0004FF47A70FFF78CFA20464FF4006101222C
:100EF000FFF76EFB4FF47A70FFF782FAEAE7F1EE44
:100F0000100A4FF6FF71C0F2C03120EA010040F034
:100F10004070E1EE100A7047000000000000000081
:100F20000102030406070809480F0008000000201A
:100F300010000000E8010008580F00081000002011
:100F40006806000004020008010000001000000014
:080F50000024F4000000000081
:04000005080001AD41
:00000001FF
