:020000040800F2
:10000000700700204D020008651A00087D190008DD
:10001000611A0008F9030008911C000800000000A4
:100020000000000000000000000000006D1A000841
:100030002D04000800000000691A0008711A000869
:1000400067020008670200086702000867020008EC
:1000500067020008670200086702000867020008DC
:1000600067020008670200086702000867020008CC
:1000700067020008670200086702000867020008BC
:1000800067020008670200086702000821040008F0
:10009000FD030008090400081504000867020008B1
:1000A000670200086702000867020008670200088C
:1000B000670200086702000867020008670200087C
:1000C000670200086702000867020008670200086C
:1000D000670200086702000867020008670200085C
:1000E000670200086702000867020008670200084C
:1000F000670200086702000867020008670200083C
:10010000670200086702000867020008670200082B
:100110006702000867020008411B00086702000828
:10012000670200086702000867020008670200080B
:1001300067020008670200086702000867020008FB
:1001400067020008670200086702000867020008EB
:1001500067020008670200086702000867020008DB
:1001600067020008670200086702000867020008CB
:10017000670200086702000867020008000000002C
:1001800067020008670200086702000867020008AB
:10019000670200086702000867020008670200089B
:1001A00000000000000000006702000800F002F8F4
:1001B00000F03CF80AA090E8000C82448344AAF1C5
:1001C0000107DA4501D100F031F8AFF2090EBAE8C3
:1001D0000F0013F0010F18BFFB1A43F0010318477B
:1001E000241B0000441B0000103A24BF78C878C1CB
:1001F000FAD8520724BF30C830C144BF04680C602D
:10020000704700000023002400250026103A28BF74
:1002100078C1FBD8520728BF30C148BF0B60704778
:100220001FB501F05AFD1FBD10B510BD00F0A9F8B3
:100230001146FFF7F5FF01F02DFD00F0C7F803B4FC
:10024000FFF7F2FF03BC00F0CFF800000948804739
:1002500009480047FEE7FEE7FEE7FEE7FEE7FEE7A8
:10026000FEE7FEE7FEE7FEE704480549054A064BC0
:10027000704700002D1B0008AD0100087001002030
:1002800070070020700300207003002053EA020C66
:1002900000F069802DE9F04B4FF00006002B1FBFE6
:1002A000B3FA83F503FA05F424FA05F65E4012BFAB
:1002B0001643B2FA82F502FA05F4C5F120051EBF15
:1002C00022FA05FC44EA0C04203556EA044C4FEAB5
:1002D000144418BF641C4FF000084FF0000990420E
:1002E00071EB030C39D3002919BFB1FA81F701FA78
:1002F00007F6B0FA80F700FA07F6C7F120071EBF2D
:1003000020FA07FC46EA0C062037B6FBF4FCA7EB04
:100310000507103F07F01F0BCBF120062CFA06F65D
:100320000CFA0BFB44BFB3460026202FA4BF5E4649
:100330004FF0000B5BEA060C08BF4FF0010B19EB06
:100340000B0948EB0608ABFB027C06FB02CC0BFB5F
:1003500003CCC01B71EB0C01C1E70B4602464146C2
:100360004846BDE8F08B13B5084318BF4FF0FF3087
:100370000146AFF30080BDE81C40704770477047EE
:100380007047754600F02CF8AE46050069465346A6
:1003900020F00700854618B020B5FFF765FFBDE8DF
:1003A00020404FF000064FF000074FF000084FF0DC
:1003B000000BAC46ACE8C009ACE8C009ACE8C00929
:1003C000ACE8C00921F007018D46704710B504461E
:1003D000AFF300802046BDE81040FFF730BF0000BB
:1003E000004870477800002001491820ABBEFEE7A6
:1003F0002600020070470000FEE7000040F2D8002F
:10040000C2F2000000F090B940F2D800C2F2000041
:1004100000F08AB940F2D800C2F2000000F084B9BE
:1004200040F2D800C2F2000000F07EB97047000030
:1004300072B600BFFEE7000090F82020013A012AC2
:1004400008D8006800F114020020136819431160F5
:10045000704700BF00F1240201204FF4802113688F
:10046000194311607047000010B590F820E0D0F8F3
:1004700000C0AEF1010EBEF1010FDCF808E011D8AA
:100480001EF0E05F18D0CEF3016E012000FA0EF0EE
:1004900018608B68D3B14868CC6844EAC000034355
:1004A00018E000BF00F1240101204FF480220B6806
:1004B0001A430A6010BD00BF00F1240101204FF46F
:1004C00000120B681A430A6010BD00BF0868CB68B1
:1004D00043EA40530CEB0E10C0F880310B69C0F8B2
:1004E0008431097D012905D100F5C2710B6843F4FF
:1004F00080730B605168C0F88C11126800F5C071F0
:10050000C0F88821002001220B681A430A6010BD40
:10051000B0B590F82020013A012A2FD846F20060A9
:10052000C4F20000026842F001020260026822F494
:100530007C520260D1F814E0CC694A6A0368012C4D
:1005400043EA022202600EF01F024FF0010303FA99
:1005500002F2C3696FEA020C23EA0203C36113D0FB
:100560002CBBC36803EA0C03C360CB688C8844EAE5
:10057000034300EBCE0423640B4611E0416A41F4CF
:10058000802141620120B0BDC3681343C3600B6882
:100590008C8844EA034300EBCE04236401F10C038E
:1005A0008C681B8843EA044300EBCE046364436811
:1005B0008D6943EA0204D1F810E0096A002D08BFF2
:1005C00003EA0C0444604369BEF1000F43EA0204ED
:1005D00008BF03EA0C040129446102D1C169114337
:1005E000C161016821F0010101600020B0BD00007F
:1005F0007047000010B590F82040013C012C7BD8DA
:10060000D0F800C0002900F08180DCF81040A40779
:1006100000F081800CEB011CDCF8B0410CF5D87EB9
:1006200014F004049460DCF8B04119BFE40854608D
:10063000640D1460DEF800400CF5DA7E04F002046C
:10064000D460DCF8B44124075ABFDEF8004004F05F
:100650000F0408241461DEF800400029C4F30724C5
:100660009461DEF800404FEA14445461DCF8B8218C
:100670001A70026802EB0112D2F8B8214FEA122276
:100680005A70026802EB0112D2F8B8214FEA124206
:100690009A70026802EB0112D2F8B8214FEA126296
:1006A000DA70026802EB0112D2F8BC211A710268FA
:1006B00002EB0112D2F8BC214FEA12225A710268F1
:1006C00002EB0112D2F8BC214FEA12429A71026881
:1006D00002EB0112D2F8BC214FEA1262DA71006813
:1006E00014BF00F1100100F10C01002020220B6862
:1006F0001A430A6010BD00BF00F1240101204FF42D
:1007000080220B681A430A6010BD00BFDCF80C4061
:10071000A4077FF47FAF00F1240101204FF4001201
:100720000B681A430A6010BD2DE9F04F81B00446F2
:1007300000684669D0F804908768D0F80CB0D0F80B
:1007400010A0D0F81880F10704D1002530071DD47F
:1007500024E000BFF90710D00121BA07816009D455
:10076000780700F1AF80380700F1B680204600F02E
:100770009DFA02E0204600F09BFA0025F80500F102
:100780008780F80300F1B180300707D51BF0100017
:1007900004D0206845F400751021C160700708D5A9
:1007A0001BF0080005D020680821C160204600F039
:1007B000B9F9B00706D52068C068800702D0204686
:1007C00000F0B2F9700607D51AF0100004D02068C6
:1007D00045F4806510210161B00608D51AF00800C3
:1007E00005D0206808210161204600F02BFAF006B0
:1007F00006D520680069800702D0204600F024FA60
:10080000B00308D519F0100005D020681021416010
:10081000204600F01BFAF00308D519F0080005D0B7
:10082000206808214160204600F04CFA300440F175
:100830009B805FEA497040F1948006F4807008EA7A
:10084000102028435FEA8871014648BF41F0020149
:10085000B20558BF01465FEA48700D4648BF45F0F3
:100860000405700558BF0D46300540F17A8018F038
:10087000700000F076801038000905286CD8DFE899
:1008800000F003595D61656945F0080564E000BF4B
:1008900020684FF48071BA0581600BD4780515D4B7
:1008A00038051DD4204600F005FAF8037FF56CAF3B
:1008B0001BE000BF204600F0FFF9F8037FF564AFAE
:1008C00013E000BF4FF4006558E700BF05F5005581
:1008D000F8037FF559AF08E04FF480554EE700BFAD
:1008E00005F58045F8037FF54FAF20684FF4803160
:1008F000BA0381600AD4780310D4380314D4204694
:1009000000F0DCF930073FF541AF47E7204600F043
:10091000D7F930073FF53AAF40E700BF05F500458E
:1009200030073FF533AF39E705F5803530073FF540
:100930002DAF33E745F010050EE000BF45F0200570
:100940000AE000BF45F0400506E000BF45F0800525
:1009500002E000BF45F480752068816921F07001D4
:10096000816120680421416055B1606A40EA050157
:100970002046616201B0BDE8F04FFFF739BE00BF0D
:1009800001B0BDE8F08F0000B0B5C8B1044690F8E2
:10099000200010B9204600F071F82068016841F08D
:1009A0000101016000F064FA054600BF206841685B
:1009B000C90707D100F05CFA401B0B28F6D312E000
:1009C0000120B0BD016821F00201016000F050FA81
:1009D000054600BF2068416889070DD500F048FA38
:1009E000401B0B28F6D3606A052140F4003060629A
:1009F000012084F82010B0BD217E0268012922F078
:100A0000800208BF80320260617E0268012922F004
:100A1000400208BF40320260A17E0268012922F034
:100A2000200208BF20320260E17E0268012922F024
:100A3000100218BF10320260217F0268012922F0E3
:100A4000080208BF08320260617F0268012922F0B3
:100A5000040208BF04320260D4E901C2D4E90335BC
:100A600061691A432A431143ACF101021143C16188
:100A700000200121606284F82010B0BD80B586B0EE
:100A8000016846F20040C4F20000814202D006B084
:100A900080BD00BF002143F630020191C4F2020282
:100AA000136900F5D43043F000731361136903F048
:100AB00000730193019B0191136843F008031360D5
:100AC0001268022302F008020192019ACDE9023174
:100AD00009210322059101A90192049200F0F4F882
:100AE00013200021002200F047FA132000F030FA12
:100AF00014200021002200F03FFA142000F028FA10
:100B000015200021002200F037FA152000F020FA0D
:100B100016200021002200F02FFA162000F018FA0B
:100B200006B080BD70470000B0B5006846F20041D5
:100B3000C4F20001884201D0B0BD00BF40F25015A0
:100B400040F2481440F2D800C2F20005C2F200049C
:100B5000C2F2000000212A462346FFF74BFD286819
:100B600040F20221884218BFB0BD20889FED2F1AA5
:100B700040BA00EE100A40F20800B8EEC00AC2F215
:100B8000000020EE010A90ED041A9FED2A2A30EEB3
:100B9000411AB4EE421AF1EE10FA80ED030A80ED2C
:100BA000051A03DD9FED222A09E000BF9FED232AED
:100BB000B4EE421AF1EE10FA05DA9FED1F2A31EE7B
:100BC000021A80ED051A90ED002A618881EE021A62
:100BD000C9BA80ED040A00EE101AA18890ED012A2E
:100BE00009BA4FF48042B8EEC00A02EB114180ED21
:100BF000060A00EE101AB8EEC00AA17931EE022AF8
:100C000080ED021A9FED0E1A80ED012A20EE010AF6
:100C1000BBEE041A30EE010A80ED070A00EE101A4E
:100C2000B8EE400A80ED080AB0BD00BFA005343D13
:100C30000000B4C3000034430000B443000034C3D8
:100C40000000A03A704700007047000070470000A5
:100C5000B0B5044690F8200001281DD1022084F888
:100C600020002068016821F00101016000F000F916
:100C7000054600BF20684068C00713D000F0F8F8B0
:100C8000401B0B28F6D3606A40F4003060620520F8
:100C900084F820000120B0BD606A40F4002060624A
:100CA0000120B0BD00206062B0BD000070470000B0
:100CB0007047000070470000704700007047000058
:100CC00070470000704700002DE9F04F82B000F13E
:100CD0003E4242F2004502F1FF77C4F202050A22C9
:100CE00043F6004E4FEAB726A84208BF0922C4F2D5
:100CF000010E092E38BF4FEAB72201250026002732
:100D00004FF00008009208E008F101080437B8F13C
:100D1000100F06F1020600F0A7800C6805FA08F92A
:100D200014EA090FF0D0D1F804B003220BF0030C41
:100D3000ACF10104B240012C6FEA020A10D88268BB
:100D4000CC6802EA0A02B440224382604268CBF3D4
:100D5000001422EA090204FA08F42243426005E082
:100D6000BCF1030F02D14FF0030C20E0C2688C6885
:100D700002EA0A02B4402243BCF1020FC26016D15B
:100D80006FF0030202EA58020244D2F820C007F0D2
:100D90001C050F230C69AB402CEA030304FA05F58C
:100DA0002B431362D1F804B001250BF0030C026849
:100DB0000CFA06F302EA0A021A431BF4403F0260EF
:100DC000A2D0002243F644030192C4F202031A683F
:100DD0004FF6084C42F480421A601A68CFF6FF7C46
:100DE00002F480420192019A28F00302724452F800
:100DF0000C3007F00C050F24AC40A343009C04FA10
:100E000005F52B4342F80C30DEF808204B6842EA27
:100E1000090543F60C4CDC0258BF22EA0905CEF85E
:100E20000850C4F2010CDCF800209C0242EA0905DB
:100E300058BF22EA0905CCF80050DEF804209C03D4
:100E400042EA090558BF22EA0905CEF80450DEF847
:100E50000020DB0342EA090558BF22EA0905CEF863
:100E60000050012550E700BF02B0BDE8F08F000040
:100E700040F26C10C2F200000068704740F20000BF
:100E800040F26C11C2F20000C2F2000100780A6860
:100E9000104408607047000080B543F60040C4F27B
:100EA0000200016841F400710160016841F4806151
:100EB0000160016841F480710160032000F088F84E
:100EC0000F2000F005F800F027F8002080BD00009A
:100ED00070B540F20006C2F2000640F22C013278F2
:100EE000C2F200014FF47A730968B3FBF2F20446D0
:100EF000B1FBF2F1084600F059FB0F2C4FF0010551
:100F000008D838B94FF0FF3021460022002500F004
:100F100033F87460284670BD82B0002043F640016B
:100F20000190C4F202014A6842F480424A604A6871
:100F300002F480420192019A0090086840F08050CB
:100F40000860086800F080500090009802B0704778
:100F5000002848BF7047C1B200F01F00012202FA0A
:100F600000F04EF20012CEF2000242EAD10121F06E
:100F7000030108607047000010B54EF60C5CCEF21D
:100F8000000CDCF80030C3F3022E8EF00704042CB2
:100F900028BF0424BEF103034FF0FF3E0EFA04F411
:100FA00038BF0023A14399400EFA03F39A4311433B
:100FB00000F00F0200F160430901043A03F56443B5
:100FC0006244002848BF02F10C03197010BD0000F4
:100FD0004EF60C51CEF200010A684FF6FF031A409C
:100FE00060F30A2242F0806040F0FD7008607047B4
:100FF00070B582B00020019043F64000C4F20200B8
:101000000168402641F0805101600068C4F20E265C
:1010100000F080500190019847F204050120C4F2CD
:1010200000053060FFF724FF044600BF2868C003B6
:1010300006D4FFF71DFF001BB0F57A7FF6D90EE04E
:1010400001207060FFF714FF044600BF286880038A
:1010500008D4FFF70DFF001BB0F57A7FF6D9032007
:1010600002B070BD002002B070BD00002DE9F0415B
:10107000002800F08B8043F60808C4F202080446FA
:10108000D8F8F8030D4600F00F00884207D288F820
:10109000F853D8F8F80300F00F00A84276D1206882
:1010A000810717D5410705D5D8F8001041F4E05164
:1010B000C8F80010010705D5D8F8001041F46041C8
:1010C000C8F80010D8F80010A26821F0F001114310
:1010D000C8F80010C0073FD1D8F8F80300F00F009F
:1010E000A84207D988F8F853D8F8F80300F00F00A1
:1010F000A8424BD12068410707D5D8F80010E26814
:1011000021F4E0511143C8F80010000708D5D8F8C1
:101110000000216920F4604040EAC100C8F80000E6
:1011200000F054F8D8F8001041F6F442C1F303116E
:10113000C0F60002515C40F22C0220FA01F140F2AC
:101140000400C2F200000068C2F200021160FFF762
:10115000BFFE0020BDE8F0816068811E022907D231
:1011600058F8081C89015CBF0120BDE8F08111E03E
:10117000012807D158F8081C89035CBF0120BDE88D
:10118000F08107E058F8081C890703D40120BDE866
:10119000F08100BFD8F8001021F003010843C8F81F
:1011A0000000FFF765FE064641F28837D8F80000D8
:1011B000616800F00C00B0EB810F8DD0FFF758FE96
:1011C000801BB842F2D90320BDE8F08110B543F688
:1011D0000404C4F20204606800F00C0008280BD07C
:1011E000042819BF42F20040C0F2F40041F600307A
:1011F000C0F2B70010BD00BF206821682368490213
:1012000041F60031C0F2B70100F03F02C3F388108D
:101210005CBF42F20041C0F2F401A1FB00010023D7
:10122000FFF734F821680222C1F3014102EB4101CA
:10123000B0FBF1F010BD00002DE9F04182B00028B4
:1012400068D00446007843F60006C007C4F20206E0
:101250000BD0B06800F00C00042840F09F8030688C
:10126000800302D56068002854D0207880071AD502
:10127000B06810F00C0F09D0B06800F00C0008281E
:1012800040F0A6807068400200F1A28030688007BC
:1012900002D5E06801283DD13068216920F0F800CE
:1012A00040EAC10030602078000737D4207840073A
:1012B0004CD4A56955B3B06800F00C00082840F084
:1012C000BB80012D26D07068E16900F480028A425B
:1012D00020D1216A00F03F028A421BD147F6C0713B
:1012E000626A0140B1EB821F14D1A16A4FF6FF730D
:1012F000C903994300F44032A1F580318A4209D1F3
:10130000E16A00F07060B0EB016F03D1002002B021
:10131000BDE8F081012002B0BDE8F08160690028DD
:1013200040F20000C4F2472076D00121C0F8801EB0
:10133000FFF79EFD054600BF706F8007B6D4FFF72C
:1013400097FD401B0228F7D9DDE000BF306C10F09C
:1013500080580AD100200190306C40F080503064F9
:10136000306C00F080500190019847F20007C4F201
:1013700000073868C00541D4386840F48070386090
:10138000FFF776FD054600BF3868C00536D4FFF785
:101390006FFD401B0228F7D9B5E000BFB06800F030
:1013A0000C00082803D1706840023FF558AF606810
:1013B000B0F5803F07D0B0F5A02F40F08D803068A9
:1013C00040F480203060306840F4803030608DE040
:1013D000E068002852D00020C4F2472001210160BB
:1013E000FFF746FD054600BF306880073FF554AF64
:1013F000FFF73EFD401B0228F6D984E0A0680128D3
:1014000005D005284ED1306F40F004003067306FB2
:1014100040F0010030674FE00021C0F8801EFFF768
:1014200027FD0546706F80077FF540AFFFF720FD71
:10143000401B0228F6D966E00027C4F247270020A7
:101440003866FFF715FD022D05460BD13068800187
:101450005ED5FFF70DFD401B02284FF00300F5D9C4
:1014600055E700BF306880017FF550AFFFF700FD02
:10147000401B02284FF00300F4D948E70020C4F2D3
:10148000472000210160FFF7F3FC05463068800724
:101490007FF509AFFFF7ECFC401B02284FF003007B
:1014A000F4D934E7316F002821F001013167316F41
:1014B00021F0040131674DD0FFF7DAFC054641F217
:1014C000883700BF306F800756D4FFF7D1FC401B30
:1014D000B842F7D917E000BF3168002821F4803105
:1014E0003160316821F4802131604FD0FFF7C0FCBA
:1014F000054600BF306880033FF5B7AEFFF7B8FC84
:10150000401B6428F6D9032002B0BDE8F08100BF7B
:1015100004F11C052FCD084340EA8210D9034FF691
:10152000FF729143A1F5803140EA05600843706085
:1015300001203866FFF79CFC044600BF306880013C
:101540003FF5E4AEFFF794FC001B02284FF00300C8
:10155000F4D9DCE6FFF78CFC054641F2883700BF82
:10156000306F800708D5FFF783FC401BB8424FF06F
:101570000300F5D9CBE600BFB8F1000F7FF499AEB8
:10158000306C20F08050306493E600BFFFF770FCB1
:10159000054600BF306880037FF567AEFFF768FC43
:1015A000401B64284FF00300F4D9B0E6411E002030
:1015B000B0EB116F1CBF012070474EF21002CEF24B
:1015C000000251604EF62351CEF20001F0230B7061
:1015D000072190601160704770470000704700005D
:1015E00010B590F83C20012A4FF0020251D080F84B
:1015F0003D200268D2F804E0D2F808C00C682EF052
:101600007003234341F2FF74C4F20004A24253600A
:101610000EDC40F2FF73C4F200039A4216DCB2F112
:10162000804F2BD040F20043C4F2000324E000BFFF
:1016300040F2FF33C4F201039A4213DC41F6000387
:10164000C4F200039A4219D0002313E040F60003CD
:10165000C4F200039A4211D040F60043C4F20003E2
:101660000AE000BF44F20003C4F201039A4205D02D
:1016700040F20043C4F201039A4204D149682CF0BD
:101680008003194391600121002280F83D1080F809
:101690003C20104610BD0000002804BF0120704708
:1016A00010B5044690F83D0028B9002084F83C00AD
:1016B000204600F01FF8022084F83D002068211D1C
:1016C00000F044FA012084F8460084F83E0084F8D3
:1016D0003F0084F8400084F8410084F8420084F818
:1016E000430084F8440084F8450084F83D0000205D
:1016F00010BD000080B582B0006841F20001C4F264
:10170000000188421CBF02B080BD0020019043F65A
:101710004000C4F202000168002241F010010160A3
:101720000068002100F01000019001983620FFF7BA
:1017300023FC362002B0BDE88040FFF709BC000062
:1017400090F83D1001291CBF01207047022180F84C
:101750003D10006841F2FF72C168C4F2000290427D
:1017600041F00101C1600DDC40F2FF71C4F20001E3
:10177000884215DCB0F1804F2AD040F20041C4F21B
:10178000000123E040F2FF31C4F20101884213DC82
:1017900041F60001C4F20001884219D0002113E093
:1017A00040F60001C4F20001884211D040F6004129
:1017B000C4F200010AE000BF44F20001C4F20101DA
:1017C000884205D040F20041C4F20101884206D1AE
:1017D000816801F00701062904BF002070470168F5
:1017E00041F00101016000207047000070470000D7
:1017F00070B504460068C5680669B10716D515F0CE
:10180000020113D06FF0020101610121217780698B
:10181000800703D02046FFF7E9FF05E0204600F0EF
:101820008FF8204600F08EF800202077700719D539
:1018300015F0040016D020686FF004010161022148
:101840002177806910F4407F04D02046FFF7CEFF57
:1018500006E000BF204600F073F8204600F072F862
:1018600000202077300717D515F0080014D0206825
:101870006FF00801016104212177C069800703D05E
:101880002046FFF7B3FF05E0204600F059F8204658
:1018900000F058F800202077F00619D515F0100058
:1018A00016D020686FF01001016108212177C0690E
:1018B00010F4407F04D02046FFF798FF06E000BFF9
:1018C000204600F03DF8204600F03CF8002020774C
:1018D000F00718BF15F0010002D1300609D412E05C
:1018E00020686FF001010161204600F02DF83006FC
:1018F00009D515F0800006D020686FF080010161E5
:101900002046FFF769FE700609D515F0400006D0A5
:1019100020686FF040010161204600F02DF8B0060C
:1019200058BF70BD15F0200008D021686FF020026C
:1019300020460A61BDE87040FFF750BE70BD000050
:10194000704700007047000040F20011C2F2000131
:1019500000680968884218BF704740F2D80040F21A
:10196000600140F25802C2F20000C2F20001C2F26D
:1019700000020023FEF778BD70470000FEE700007C
:1019800080B540F2D80046F20041C2F20000C4F235
:1019900000010322002380E80E0000F10C014FF447
:1019A000102C4FF4401E81E8085083618383FEF7BA
:1019B000EBFF002808BF80BDBDE88040FEF738BDC2
:1019C00083B0002043F630010290C4F202010A689D
:1019D00042F001020A600A6802F001020292029AD1
:1019E00001900A6842F008020A600A6802F00802E0
:1019F0000192019A0090086840F080000860086831
:101A000000F080000090009803B0704780B582B06D
:101A100040F2001041F200020021C2F20000C4F2C4
:101A2000000242F227334FF0090CCDE90011C0E962
:101A30000023C0E9021C8161FFF72EFE002818BFB9
:101A4000FEF7F6FC40F20010C2F200006946FFF714
:101A5000C7FD002818BFFEF7EBFC02B080BD0000F8
:101A6000FEE70000FEE7000070470000704700003E
:101A7000FFF704BA80B592B0002043F64001CDE9EB
:101A80000A00CDE908000590CDE90300CDE9010089
:101A90000090C4F202010A6842F080520A600968AC
:101AA00001F0805100910099009047F20000C4F2CB
:101AB0000000016841F44041016000684FF480017A
:101AC00000F4404000900098012006904FF48030D0
:101AD0000D910621079002200E91B4210C90CDE9C2
:101AE0000F100420119006A8FFF7A6FB10B172B6E4
:101AF000FEE700BFFFF77CFA10B172B6FEE700BF49
:101B00000F20019002200290002003904FF4A0507B
:101B100004904FF48050059001A80521FFF7A6FA24
:101B200010B172B6FEE700BF12B080BD4EF688500D
:101B3000CEF20000016841F47001016070470000BE
:101B400040F20010C2F20000FFF752BEB0B540F6FE
:101B5000FF3E0568C4F2000E40F2004C7045C4F22E
:101B6000010C27DCB0F1804F31D040F20043C4F2C9
:101B7000000398422BD040F60003C4F200039842C1
:101B800025D041F6FF73C4F2000398422ADC704569
:101B90003CDCB0F1804F5FD040F20043C4F2000360
:101BA000984259D040F60003C4F20003984253D043
:101BB00057E000BF40F60043C4F20003984206D04D
:101BC000604504D00023C4F201039842D9D14B6888
:101BD00025F0700243EA020541F6FF73C4F20003E8
:101BE0009842D4DD43F6FF73C4F20103984221DC2E
:101BF00042F20003C4F2000398422DD00023C4F245
:101C00000103984228D0604526D02AE040F60043E0
:101C1000C4F2000398421FD041F60003C4F200034F
:101C2000984219D041F60043C4F20003984213D001
:101C300017E000BF44F20003C4F2010398420BD046
:101C400044F60003C4F20103984205D044F2004375
:101C5000C4F20103984204D1CB6825F4407243EAF0
:101C600002050A688C684B69C46240F48064826231
:101C7000644504BF09690163026825F0800142F0F0
:101C8000040219430260012242610160B0BD0000FC
:101C9000FEE70000FFF700F9FFF7ECFEFFF790FE0C
:101CA000FFF76EFEFFF7B2FE40F2D804C2F2000466
:101CB00040F23001C2F200012046FEF729FC204626
:101CC000FEF7C6FF20460221FEF7B6FB40F20010E9
:101CD000C2F20000FFF734FDFEE7F1EE100A4FF606
:101CE000FF71C0F2C03120EA010040F04070E1EE27
:101CF000100A704700000000000000000102030409
:101D000006070809281D00080000002078000000D0
:101D1000E8010008A01D000878000020F806000077
:101D20000402000800000000010000001000000094
:101D30009A99994100000000000000000000000096
:101D40000000000000000000000000000000000093
:101D5000000000000024F40000000000000000006B
:101D60000000000000000000000000000000000073
:101D70000000000001000000010000000000000061
:101D800000C000C0000000000002000000000000D1
:101D9000000000000000000008000000000000003B
:04000005080001AD41
:00000001FF
